{
  "contractName": "Flight",
  "abi": [
    {
      "constant": true,
      "inputs": [],
      "name": "seatPrice",
      "outputs": [
        {
          "name": "",
          "type": "uint256"
        }
      ],
      "payable": false,
      "stateMutability": "view",
      "type": "function",
      "signature": "0x0fd57f3e"
    },
    {
      "constant": true,
      "inputs": [
        {
          "name": "",
          "type": "uint256"
        }
      ],
      "name": "seats",
      "outputs": [
        {
          "name": "uuid",
          "type": "bytes32"
        },
        {
          "name": "owner",
          "type": "address"
        },
        {
          "name": "passenger",
          "type": "address"
        },
        {
          "name": "price",
          "type": "uint256"
        }
      ],
      "payable": false,
      "stateMutability": "view",
      "type": "function",
      "signature": "0x3b33c702"
    },
    {
      "constant": true,
      "inputs": [],
      "name": "flightId",
      "outputs": [
        {
          "name": "",
          "type": "bytes32"
        }
      ],
      "payable": false,
      "stateMutability": "view",
      "type": "function",
      "signature": "0x5daf3c06"
    },
    {
      "constant": false,
      "inputs": [],
      "name": "renounceOwnership",
      "outputs": [],
      "payable": false,
      "stateMutability": "nonpayable",
      "type": "function",
      "signature": "0x715018a6"
    },
    {
      "constant": true,
      "inputs": [],
      "name": "seatsRemaining",
      "outputs": [
        {
          "name": "",
          "type": "uint256"
        }
      ],
      "payable": false,
      "stateMutability": "view",
      "type": "function",
      "signature": "0x71b3257f"
    },
    {
      "constant": true,
      "inputs": [],
      "name": "owner",
      "outputs": [
        {
          "name": "",
          "type": "address"
        }
      ],
      "payable": false,
      "stateMutability": "view",
      "type": "function",
      "signature": "0x8da5cb5b"
    },
    {
      "constant": true,
      "inputs": [],
      "name": "isOwner",
      "outputs": [
        {
          "name": "",
          "type": "bool"
        }
      ],
      "payable": false,
      "stateMutability": "view",
      "type": "function",
      "signature": "0x8f32d59b"
    },
    {
      "constant": true,
      "inputs": [
        {
          "name": "",
          "type": "address"
        }
      ],
      "name": "passengerSeat",
      "outputs": [
        {
          "name": "",
          "type": "uint256"
        }
      ],
      "payable": false,
      "stateMutability": "view",
      "type": "function",
      "signature": "0x91862af5"
    },
    {
      "constant": true,
      "inputs": [
        {
          "name": "",
          "type": "bytes32"
        }
      ],
      "name": "seatIndexFromUuid",
      "outputs": [
        {
          "name": "",
          "type": "uint256"
        }
      ],
      "payable": false,
      "stateMutability": "view",
      "type": "function",
      "signature": "0x9cb9c12e"
    },
    {
      "constant": true,
      "inputs": [],
      "name": "seatPurchaseIndex",
      "outputs": [
        {
          "name": "",
          "type": "uint256"
        }
      ],
      "payable": false,
      "stateMutability": "view",
      "type": "function",
      "signature": "0xa2f53242"
    },
    {
      "constant": true,
      "inputs": [],
      "name": "seatCount",
      "outputs": [
        {
          "name": "",
          "type": "uint256"
        }
      ],
      "payable": false,
      "stateMutability": "view",
      "type": "function",
      "signature": "0xc6b463d3"
    },
    {
      "constant": true,
      "inputs": [
        {
          "name": "",
          "type": "address"
        },
        {
          "name": "",
          "type": "uint256"
        }
      ],
      "name": "ownerSeats",
      "outputs": [
        {
          "name": "",
          "type": "uint256"
        }
      ],
      "payable": false,
      "stateMutability": "view",
      "type": "function",
      "signature": "0xd49c1112"
    },
    {
      "constant": true,
      "inputs": [],
      "name": "regulator",
      "outputs": [
        {
          "name": "",
          "type": "address"
        }
      ],
      "payable": false,
      "stateMutability": "view",
      "type": "function",
      "signature": "0xdd8fee14"
    },
    {
      "constant": false,
      "inputs": [
        {
          "name": "newOwner",
          "type": "address"
        }
      ],
      "name": "transferOwnership",
      "outputs": [],
      "payable": false,
      "stateMutability": "nonpayable",
      "type": "function",
      "signature": "0xf2fde38b"
    },
    {
      "inputs": [],
      "payable": false,
      "stateMutability": "nonpayable",
      "type": "constructor",
      "signature": "constructor"
    },
    {
      "anonymous": false,
      "inputs": [
        {
          "indexed": true,
          "name": "purchaser",
          "type": "address"
        }
      ],
      "name": "TicketPurchased",
      "type": "event",
      "signature": "0x23443ac3afaec974c2d4368824912f61a50fee541bcc94ec52414ba6a9b14aab"
    },
    {
      "anonymous": false,
      "inputs": [
        {
          "indexed": true,
          "name": "flightId",
          "type": "bytes32"
        }
      ],
      "name": "FlightEnabled",
      "type": "event",
      "signature": "0x296d469580368394d8900bf6d30b751620d09fdda0232dc67a2097955bf54d4c"
    },
    {
      "anonymous": false,
      "inputs": [
        {
          "indexed": true,
          "name": "flightId",
          "type": "bytes32"
        }
      ],
      "name": "FlightLanded",
      "type": "event",
      "signature": "0xd04aa9134d8671223bcf1a1e9772787b447d75097b41dbda4f41feae404140b8"
    },
    {
      "anonymous": false,
      "inputs": [
        {
          "indexed": true,
          "name": "flightId",
          "type": "bytes32"
        }
      ],
      "name": "FlightCancelled",
      "type": "event",
      "signature": "0xd41a2b5527287431a6eb7b2498cbff5d67716e8ced3218eef1177a628d36388f"
    },
    {
      "anonymous": false,
      "inputs": [
        {
          "indexed": true,
          "name": "flightId",
          "type": "bytes32"
        },
        {
          "indexed": true,
          "name": "owner",
          "type": "address"
        },
        {
          "indexed": false,
          "name": "uuid",
          "type": "bytes32"
        }
      ],
      "name": "SeatBooked",
      "type": "event",
      "signature": "0x10fc8468ae793318338006260b422c51971f60e9b1839f18180374c0468cfff1"
    },
    {
      "anonymous": false,
      "inputs": [
        {
          "indexed": true,
          "name": "flightId",
          "type": "bytes32"
        },
        {
          "indexed": false,
          "name": "uuid",
          "type": "bytes32"
        }
      ],
      "name": "SeatCancelled",
      "type": "event",
      "signature": "0x51219a16bbaf2523d2cd0e0ffa450b949fda85877171b868d895be11ab7c63ba"
    },
    {
      "anonymous": false,
      "inputs": [
        {
          "indexed": true,
          "name": "flightId",
          "type": "bytes32"
        },
        {
          "indexed": true,
          "name": "owner",
          "type": "address"
        },
        {
          "indexed": false,
          "name": "uuid",
          "type": "bytes32"
        }
      ],
      "name": "SeatTransferred",
      "type": "event",
      "signature": "0xed9dbc00871ab66fe91b702825c088aad8afa52119bc6d89817a301b553ce04c"
    },
    {
      "anonymous": false,
      "inputs": [
        {
          "indexed": true,
          "name": "flightId",
          "type": "bytes32"
        },
        {
          "indexed": true,
          "name": "owner",
          "type": "address"
        },
        {
          "indexed": false,
          "name": "amount",
          "type": "uint256"
        }
      ],
      "name": "RefundSent",
      "type": "event",
      "signature": "0xef721ab9dbabd936e63830e699f561906f54d10c719c44613ac44907d7f01a11"
    },
    {
      "anonymous": false,
      "inputs": [
        {
          "indexed": true,
          "name": "flightId",
          "type": "bytes32"
        },
        {
          "indexed": true,
          "name": "owner",
          "type": "address"
        },
        {
          "indexed": false,
          "name": "amount",
          "type": "uint256"
        }
      ],
      "name": "FlightConcluded",
      "type": "event",
      "signature": "0x8fb8e8a0b20293ca4c36d58df64f030aca3d302f25e5ecb916fc857cb7402fb6"
    },
    {
      "anonymous": false,
      "inputs": [
        {
          "indexed": false,
          "name": "debugString",
          "type": "bytes32"
        },
        {
          "indexed": false,
          "name": "debugInteger",
          "type": "uint256"
        }
      ],
      "name": "Dump",
      "type": "event",
      "signature": "0x23c781eec21b1880f6c31c4d908b09f0225b5f7f34a70c9284859b36de2b7c9e"
    },
    {
      "anonymous": false,
      "inputs": [
        {
          "indexed": true,
          "name": "previousOwner",
          "type": "address"
        }
      ],
      "name": "OwnershipRenounced",
      "type": "event",
      "signature": "0xf8df31144d9c2f0f6b59d69b8b98abd5459d07f2742c4df920b25aae33c64820"
    },
    {
      "anonymous": false,
      "inputs": [
        {
          "indexed": true,
          "name": "previousOwner",
          "type": "address"
        },
        {
          "indexed": true,
          "name": "newOwner",
          "type": "address"
        }
      ],
      "name": "OwnershipTransferred",
      "type": "event",
      "signature": "0x8be0079c531659141344cd1fd0a4f28419497f9722a3daafe3b4186f6b6457e0"
    },
    {
      "constant": false,
      "inputs": [
        {
          "name": "_regulator",
          "type": "address"
        }
      ],
      "name": "addRegulator",
      "outputs": [],
      "payable": false,
      "stateMutability": "nonpayable",
      "type": "function",
      "signature": "0xac63f3c7"
    },
    {
      "constant": false,
      "inputs": [
        {
          "name": "_seatPrice",
          "type": "uint256"
        }
      ],
      "name": "setSeatPrice",
      "outputs": [],
      "payable": false,
      "stateMutability": "nonpayable",
      "type": "function",
      "signature": "0x0ccc4ff3"
    },
    {
      "constant": false,
      "inputs": [],
      "name": "enableFlight",
      "outputs": [],
      "payable": false,
      "stateMutability": "nonpayable",
      "type": "function",
      "signature": "0x142e8db1"
    },
    {
      "constant": true,
      "inputs": [
        {
          "name": "_index",
          "type": "uint256"
        }
      ],
      "name": "getOwnerSeat",
      "outputs": [
        {
          "name": "",
          "type": "uint256"
        }
      ],
      "payable": false,
      "stateMutability": "view",
      "type": "function",
      "signature": "0x54368090"
    },
    {
      "constant": true,
      "inputs": [],
      "name": "getOwnerSeats",
      "outputs": [
        {
          "name": "",
          "type": "uint256[]"
        }
      ],
      "payable": false,
      "stateMutability": "view",
      "type": "function",
      "signature": "0x60581dcc"
    },
    {
      "constant": false,
      "inputs": [
        {
          "name": "_seatIndex",
          "type": "uint256"
        },
        {
          "name": "_transferTo",
          "type": "address"
        }
      ],
      "name": "transferSeat",
      "outputs": [],
      "payable": false,
      "stateMutability": "nonpayable",
      "type": "function",
      "signature": "0x67767635"
    },
    {
      "constant": false,
      "inputs": [],
      "name": "closeFlight",
      "outputs": [],
      "payable": false,
      "stateMutability": "nonpayable",
      "type": "function",
      "signature": "0xcabaed40"
    },
    {
      "constant": false,
      "inputs": [],
      "name": "landFlight",
      "outputs": [],
      "payable": false,
      "stateMutability": "nonpayable",
      "type": "function",
      "signature": "0x6d399ce6"
    },
    {
      "constant": false,
      "inputs": [],
      "name": "finaliseFlight",
      "outputs": [],
      "payable": false,
      "stateMutability": "nonpayable",
      "type": "function",
      "signature": "0xaa9b81ae"
    },
    {
      "constant": false,
      "inputs": [],
      "name": "cancelFlight",
      "outputs": [],
      "payable": false,
      "stateMutability": "nonpayable",
      "type": "function",
      "signature": "0x09aa69c2"
    },
    {
      "constant": true,
      "inputs": [],
      "name": "getStatus",
      "outputs": [
        {
          "name": "",
          "type": "uint8"
        }
      ],
      "payable": false,
      "stateMutability": "view",
      "type": "function",
      "signature": "0x4e69d560"
    },
    {
      "constant": false,
      "inputs": [
        {
          "name": "_flightId",
          "type": "bytes32"
        }
      ],
      "name": "setFlightId",
      "outputs": [],
      "payable": false,
      "stateMutability": "nonpayable",
      "type": "function",
      "signature": "0x50f6511c"
    },
    {
      "constant": false,
      "inputs": [
        {
          "name": "_seatCount",
          "type": "uint256"
        }
      ],
      "name": "setSeatCount",
      "outputs": [],
      "payable": false,
      "stateMutability": "nonpayable",
      "type": "function",
      "signature": "0xaf41224f"
    },
    {
      "constant": false,
      "inputs": [
        {
          "name": "_seatsRemaining",
          "type": "uint256"
        }
      ],
      "name": "setRemainingSeats",
      "outputs": [],
      "payable": false,
      "stateMutability": "nonpayable",
      "type": "function",
      "signature": "0x14e69a9b"
    },
    {
      "constant": false,
      "inputs": [
        {
          "name": "numberOfSeats",
          "type": "uint256"
        }
      ],
      "name": "book",
      "outputs": [],
      "payable": true,
      "stateMutability": "payable",
      "type": "function",
      "signature": "0x1116fd04"
    },
    {
      "constant": false,
      "inputs": [
        {
          "name": "_uuid",
          "type": "bytes32"
        }
      ],
      "name": "loadSeat",
      "outputs": [
        {
          "name": "",
          "type": "uint256"
        }
      ],
      "payable": false,
      "stateMutability": "nonpayable",
      "type": "function",
      "signature": "0xf815226d"
    },
    {
      "constant": true,
      "inputs": [
        {
          "name": "_index",
          "type": "uint256"
        }
      ],
      "name": "getSeatByIndex",
      "outputs": [
        {
          "name": "",
          "type": "uint256"
        },
        {
          "name": "",
          "type": "bytes32"
        },
        {
          "name": "",
          "type": "address"
        },
        {
          "name": "",
          "type": "address"
        },
        {
          "name": "",
          "type": "uint256"
        }
      ],
      "payable": false,
      "stateMutability": "view",
      "type": "function",
      "signature": "0xb743795b"
    },
    {
      "constant": true,
      "inputs": [
        {
          "name": "_uuid",
          "type": "bytes32"
        }
      ],
      "name": "getSeatByUuid",
      "outputs": [
        {
          "name": "",
          "type": "uint256"
        },
        {
          "name": "",
          "type": "bytes32"
        },
        {
          "name": "",
          "type": "address"
        },
        {
          "name": "",
          "type": "address"
        },
        {
          "name": "",
          "type": "uint256"
        }
      ],
      "payable": false,
      "stateMutability": "view",
      "type": "function",
      "signature": "0x2e3487e7"
    },
    {
      "constant": true,
      "inputs": [],
      "name": "getPassengerSeat",
      "outputs": [
        {
          "name": "",
          "type": "uint256"
        },
        {
          "name": "",
          "type": "bytes32"
        },
        {
          "name": "",
          "type": "address"
        },
        {
          "name": "",
          "type": "address"
        },
        {
          "name": "",
          "type": "uint256"
        }
      ],
      "payable": false,
      "stateMutability": "view",
      "type": "function",
      "signature": "0xa3bc2972"
    },
    {
      "constant": false,
      "inputs": [
        {
          "name": "_seatIndex",
          "type": "uint256"
        }
      ],
      "name": "cancelSeat",
      "outputs": [],
      "payable": false,
      "stateMutability": "nonpayable",
      "type": "function",
      "signature": "0xa12a4021"
    },
    {
      "constant": true,
      "inputs": [],
      "name": "getSkippedSeatCount",
      "outputs": [
        {
          "name": "",
          "type": "uint256"
        }
      ],
      "payable": false,
      "stateMutability": "view",
      "type": "function",
      "signature": "0x5202a402"
    },
    {
      "constant": false,
      "inputs": [],
      "name": "requestRefund",
      "outputs": [],
      "payable": false,
      "stateMutability": "nonpayable",
      "type": "function",
      "signature": "0xd5cef133"
    },
    {
      "constant": false,
      "inputs": [],
      "name": "concludeFlight",
      "outputs": [],
      "payable": false,
      "stateMutability": "nonpayable",
      "type": "function",
      "signature": "0xad026a36"
    }
  ],
  "bytecode": "0x6080604052600060045534801561001557600080fd5b50336000806101000a81548173ffffffffffffffffffffffffffffffffffffffff021916908373ffffffffffffffffffffffffffffffffffffffff1602179055506000600c60006101000a81548160ff0219169083600581111561007557fe5b0217905550613a7e806100896000396000f3006080604052600436106101cd576000357c0100000000000000000000000000000000000000000000000000000000900463ffffffff16806309aa69c2146101d25780630ccc4ff3146101e95780630fd57f3e146102165780631116fd0414610241578063142e8db11461026157806314e69a9b146102785780632e3487e7146102a55780633b33c702146103665780634e69d5601461041c57806350f6511c146104555780635202a4021461048657806354368090146104b15780635daf3c06146104f257806360581dcc1461052557806367767635146105915780636d399ce6146105de578063715018a6146105f557806371b3257f1461060c5780638da5cb5b146106375780638f32d59b1461068e57806391862af5146106bd5780639cb9c12e14610714578063a12a402114610759578063a2f5324214610786578063a3bc2972146107b1578063aa9b81ae14610858578063ac63f3c71461086f578063ad026a36146108b2578063af41224f146108c9578063b743795b146108f6578063c6b463d3146109b3578063cabaed40146109de578063d49c1112146109f5578063d5cef13314610a56578063dd8fee1414610a6d578063f2fde38b14610ac4578063f815226d14610b07575b600080fd5b3480156101de57600080fd5b506101e7610b4c565b005b3480156101f557600080fd5b5061021460048036038101908080359060200190929190505050610cd7565b005b34801561022257600080fd5b5061022b610d83565b6040518082815260200191505060405180910390f35b61025f60048036038101908080359060200190929190505050610d89565b005b34801561026d57600080fd5b506102766110e3565b005b34801561028457600080fd5b506102a360048036038101908080359060200190929190505050611388565b005b3480156102b157600080fd5b506102d46004803603810190808035600019169060200190929190505050611434565b6040518086815260200185600019166000191681526020018473ffffffffffffffffffffffffffffffffffffffff1673ffffffffffffffffffffffffffffffffffffffff1681526020018373ffffffffffffffffffffffffffffffffffffffff1673ffffffffffffffffffffffffffffffffffffffff1681526020018281526020019550505050505060405180910390f35b34801561037257600080fd5b50610391600480360381019080803590602001909291905050506114f7565b6040518085600019166000191681526020018473ffffffffffffffffffffffffffffffffffffffff1673ffffffffffffffffffffffffffffffffffffffff1681526020018373ffffffffffffffffffffffffffffffffffffffff1673ffffffffffffffffffffffffffffffffffffffff16815260200182815260200194505050505060405180910390f35b34801561042857600080fd5b50610431611576565b6040518082600581111561044157fe5b60ff16815260200191505060405180910390f35b34801561046157600080fd5b50610484600480360381019080803560001916906020019092919050505061158d565b005b34801561049257600080fd5b5061049b61163d565b6040518082815260200191505060405180910390f35b3480156104bd57600080fd5b506104dc6004803603810190808035906020019092919050505061164a565b6040518082815260200191505060405180910390f35b3480156104fe57600080fd5b50610507611789565b60405180826000191660001916815260200191505060405180910390f35b34801561053157600080fd5b5061053a61178f565b6040518080602001828103825283818151815260200191508051906020019060200280838360005b8381101561057d578082015181840152602081019050610562565b505050509050019250505060405180910390f35b34801561059d57600080fd5b506105dc60048036038101908080359060200190929190803573ffffffffffffffffffffffffffffffffffffffff169060200190929190505050611904565b005b3480156105ea57600080fd5b506105f3611c11565b005b34801561060157600080fd5b5061060a611da9565b005b34801561061857600080fd5b50610621611ef2565b6040518082815260200191505060405180910390f35b34801561064357600080fd5b5061064c611ef8565b604051808273ffffffffffffffffffffffffffffffffffffffff1673ffffffffffffffffffffffffffffffffffffffff16815260200191505060405180910390f35b34801561069a57600080fd5b506106a3611f21565b604051808215151515815260200191505060405180910390f35b3480156106c957600080fd5b506106fe600480360381019080803573ffffffffffffffffffffffffffffffffffffffff169060200190929190505050611f78565b6040518082815260200191505060405180910390f35b34801561072057600080fd5b506107436004803603810190808035600019169060200190929190505050611f90565b6040518082815260200191505060405180910390f35b34801561076557600080fd5b5061078460048036038101908080359060200190929190505050611fa8565b005b34801561079257600080fd5b5061079b6125c1565b6040518082815260200191505060405180910390f35b3480156107bd57600080fd5b506107c66125c7565b6040518086815260200185600019166000191681526020018473ffffffffffffffffffffffffffffffffffffffff1673ffffffffffffffffffffffffffffffffffffffff1681526020018373ffffffffffffffffffffffffffffffffffffffff1673ffffffffffffffffffffffffffffffffffffffff1681526020018281526020019550505050505060405180910390f35b34801561086457600080fd5b5061086d6126d4565b005b34801561087b57600080fd5b506108b0600480360381019080803573ffffffffffffffffffffffffffffffffffffffff169060200190929190505050612839565b005b3480156108be57600080fd5b506108c761291f565b005b3480156108d557600080fd5b506108f460048036038101908080359060200190929190505050612a54565b005b34801561090257600080fd5b5061092160048036038101908080359060200190929190505050612b00565b6040518086815260200185600019166000191681526020018473ffffffffffffffffffffffffffffffffffffffff1673ffffffffffffffffffffffffffffffffffffffff1681526020018373ffffffffffffffffffffffffffffffffffffffff1673ffffffffffffffffffffffffffffffffffffffff1681526020018281526020019550505050505060405180910390f35b3480156109bf57600080fd5b506109c8612b91565b6040518082815260200191505060405180910390f35b3480156109ea57600080fd5b506109f3612b97565b005b348015610a0157600080fd5b50610a40600480360381019080803573ffffffffffffffffffffffffffffffffffffffff16906020019092919080359060200190929190505050612cfc565b6040518082815260200191505060405180910390f35b348015610a6257600080fd5b50610a6b612d2c565b005b348015610a7957600080fd5b50610a826130cf565b604051808273ffffffffffffffffffffffffffffffffffffffff1673ffffffffffffffffffffffffffffffffffffffff16815260200191505060405180910390f35b348015610ad057600080fd5b50610b05600480360381019080803573ffffffffffffffffffffffffffffffffffffffff1690602001909291905050506130f5565b005b348015610b1357600080fd5b50610b3660048036038101908080356000191690602001909291905050506131a3565b6040518082815260200191505060405180910390f35b610b54611f21565b1515610bee576040517f08c379a00000000000000000000000000000000000000000000000000000000081526004018080602001828103825260268152602001807f4f6e6c7920746865206f776e6572206d617920706572666f726d20746869732081526020017f616374696f6e000000000000000000000000000000000000000000000000000081525060400191505060405180910390fd5b60046005811115610bfb57fe5b600c60009054906101000a900460ff166005811115610c1657fe5b141515610cb1576040517f08c379a00000000000000000000000000000000000000000000000000000000081526004018080602001828103825260228152602001807f466c69676874206d75737420626520696e2046696e616c69736564207374617481526020017f757300000000000000000000000000000000000000000000000000000000000081525060400191505060405180910390fd5b6005600c60006101000a81548160ff02191690836005811115610cd057fe5b0217905550565b610cdf611f21565b1515610d79576040517f08c379a00000000000000000000000000000000000000000000000000000000081526004018080602001828103825260268152602001807f4f6e6c7920746865206f776e6572206d617920706572666f726d20746869732081526020017f616374696f6e000000000000000000000000000000000000000000000000000081525060400191505060405180910390fd5b8060058190555050565b60055481565b60016005811115610d9657fe5b600c60009054906101000a900460ff166005811115610db157fe5b141515610e26576040517f08c379a000000000000000000000000000000000000000000000000000000000815260040180806020018281038252601d8152602001807f466c69676874206d75737420626520696e2053616c652073746174757300000081525060200191505060405180910390fd5b600034111515610e9e576040517f08c379a000000000000000000000000000000000000000000000000000000000815260040180806020018281038252601f8152602001807f5072696365206d7573742062652067726561746572207468616e207a65726f0081525060200191505060405180910390fd5b600081111515610f16576040517f08c379a000000000000000000000000000000000000000000000000000000000815260040180806020018281038252601e8152602001807f4e756d626572206f662073656174732063616e6e6f74206265207a65726f000081525060200191505060405180910390fd5b806005540234141515610fdd576040517f08c379a00000000000000000000000000000000000000000000000000000000081526004018080602001828103825260418152602001807f56616c7565206d75737420626520746865206e756d626572206f66207365617481526020017f73206d756c7469706c696564206279207468652063757272656e74207072696381526020017f650000000000000000000000000000000000000000000000000000000000000081525060600191505060405180910390fd5b600354811115151561107d576040517f08c379a000000000000000000000000000000000000000000000000000000000815260040180806020018281038252602f8152602001807f546865726520617265206e6f7420656e6f75676820736561747320746f206d6181526020017f6b65207468697320626f6f6b696e67000000000000000000000000000000000081525060400191505060405180910390fd5b60018114801561109257506000600b80549050145b156110a45761109f61330a565b6110e0565b60018111156110bb576110b68161358e565b6110df565b6001811480156110d057506000600b80549050115b156110de576110dd6135b2565b5b5b5b50565b6110eb611f21565b1515611185576040517f08c379a00000000000000000000000000000000000000000000000000000000081526004018080602001828103825260268152602001807f4f6e6c7920746865206f776e6572206d617920706572666f726d20746869732081526020017f616374696f6e000000000000000000000000000000000000000000000000000081525060400191505060405180910390fd5b60006002541115156111ff576040517f08c379a00000000000000000000000000000000000000000000000000000000081526004018080602001828103825260168152602001807f466c69676874206d75737420686176652073656174730000000000000000000081525060200191505060405180910390fd5b6000600160009054906101000a900473ffffffffffffffffffffffffffffffffffffffff1673ffffffffffffffffffffffffffffffffffffffff16141515156112b0576040517f08c379a000000000000000000000000000000000000000000000000000000000815260040180806020018281038252601c8152602001807f466c69676874206d7573742068617665206120726567756c61746f720000000081525060200191505060405180910390fd5b6000600654600019161415151561132f576040517f08c379a00000000000000000000000000000000000000000000000000000000081526004018080602001828103825260168152602001807f466c69676874206d757374206861766520616e2049440000000000000000000081525060200191505060405180910390fd5b6001600c60006101000a81548160ff0219169083600581111561134e57fe5b0217905550600654600019167f296d469580368394d8900bf6d30b751620d09fdda0232dc67a2097955bf54d4c60405160405180910390a2565b611390611f21565b151561142a576040517f08c379a00000000000000000000000000000000000000000000000000000000081526004018080602001828103825260268152602001807f4f6e6c7920746865206f776e6572206d617920706572666f726d20746869732081526020017f616374696f6e000000000000000000000000000000000000000000000000000081525060400191505060405180910390fd5b8060038190555050565b600080600080600080600a6008600089600019166000191681526020019081526020016000205481548110151561146757fe5b9060005260206000209060040201905060086000886000191660001916815260200190815260200160002054878260010160009054906101000a900473ffffffffffffffffffffffffffffffffffffffff168360020160009054906101000a900473ffffffffffffffffffffffffffffffffffffffff168460030154955095509550955095505091939590929450565b600a8181548110151561150657fe5b90600052602060002090600402016000915090508060000154908060010160009054906101000a900473ffffffffffffffffffffffffffffffffffffffff16908060020160009054906101000a900473ffffffffffffffffffffffffffffffffffffffff16908060030154905084565b6000600c60009054906101000a900460ff16905090565b611595611f21565b151561162f576040517f08c379a00000000000000000000000000000000000000000000000000000000081526004018080602001828103825260268152602001807f4f6e6c7920746865206f776e6572206d617920706572666f726d20746869732081526020017f616374696f6e000000000000000000000000000000000000000000000000000081525060400191505060405180910390fd5b806006816000191690555050565b6000600b80549050905090565b600080600760003373ffffffffffffffffffffffffffffffffffffffff1673ffffffffffffffffffffffffffffffffffffffff1681526020019081526020016000208054905011151561172b576040517f08c379a00000000000000000000000000000000000000000000000000000000081526004018080602001828103825260258152602001807f53656e646572206d7573742068617665207365617473206f6e2074686973206681526020017f6c6967687400000000000000000000000000000000000000000000000000000081525060400191505060405180910390fd5b600760003373ffffffffffffffffffffffffffffffffffffffff1673ffffffffffffffffffffffffffffffffffffffff1681526020019081526020016000208281548110151561177757fe5b90600052602060002001549050919050565b60065481565b60606000600760003373ffffffffffffffffffffffffffffffffffffffff1673ffffffffffffffffffffffffffffffffffffffff16815260200190815260200160002080549050111515611871576040517f08c379a00000000000000000000000000000000000000000000000000000000081526004018080602001828103825260258152602001807f53656e646572206d7573742068617665207365617473206f6e2074686973206681526020017f6c6967687400000000000000000000000000000000000000000000000000000081525060400191505060405180910390fd5b600760003373ffffffffffffffffffffffffffffffffffffffff1673ffffffffffffffffffffffffffffffffffffffff1681526020019081526020016000208054806020026020016040519081016040528092919081815260200182805480156118fa57602002820191906000526020600020905b8154815260200190600101908083116118e6575b5050505050905090565b6000600760003373ffffffffffffffffffffffffffffffffffffffff1673ffffffffffffffffffffffffffffffffffffffff168152602001908152602001600020805490501115156119e4576040517f08c379a00000000000000000000000000000000000000000000000000000000081526004018080602001828103825260258152602001807f53656e646572206d7573742068617665207365617473206f6e2074686973206681526020017f6c6967687400000000000000000000000000000000000000000000000000000081525060400191505060405180910390fd5b3373ffffffffffffffffffffffffffffffffffffffff16600a83815481101515611a0a57fe5b906000526020600020906004020160010160009054906101000a900473ffffffffffffffffffffffffffffffffffffffff1673ffffffffffffffffffffffffffffffffffffffff16141515611aed576040517f08c379a00000000000000000000000000000000000000000000000000000000081526004018080602001828103825260228152602001807f596f7520617265206e6f7420746865206f776e6572206f66207468697320736581526020017f617400000000000000000000000000000000000000000000000000000000000081525060400191505060405180910390fd5b80600a83815481101515611afd57fe5b906000526020600020906004020160020160006101000a81548173ffffffffffffffffffffffffffffffffffffffff021916908373ffffffffffffffffffffffffffffffffffffffff16021790555081600960008373ffffffffffffffffffffffffffffffffffffffff1673ffffffffffffffffffffffffffffffffffffffff168152602001908152602001600020819055503373ffffffffffffffffffffffffffffffffffffffff16600654600019167fed9dbc00871ab66fe91b702825c088aad8afa52119bc6d89817a301b553ce04c600a85815481101515611bde57fe5b90600052602060002090600402016000015460405180826000191660001916815260200191505060405180910390a35050565b611c19611f21565b1515611cb3576040517f08c379a00000000000000000000000000000000000000000000000000000000081526004018080602001828103825260268152602001807f4f6e6c7920746865206f776e6572206d617920706572666f726d20746869732081526020017f616374696f6e000000000000000000000000000000000000000000000000000081525060400191505060405180910390fd5b60026005811115611cc057fe5b600c60009054906101000a900460ff166005811115611cdb57fe5b141515611d50576040517f08c379a000000000000000000000000000000000000000000000000000000000815260040180806020018281038252601f8152602001807f466c69676874206d75737420626520696e20436c6f736564207374617475730081525060200191505060405180910390fd5b6003600c60006101000a81548160ff02191690836005811115611d6f57fe5b0217905550600654600019167fd04aa9134d8671223bcf1a1e9772787b447d75097b41dbda4f41feae404140b860405160405180910390a2565b611db1611f21565b1515611e4b576040517f08c379a00000000000000000000000000000000000000000000000000000000081526004018080602001828103825260268152602001807f4f6e6c7920746865206f776e6572206d617920706572666f726d20746869732081526020017f616374696f6e000000000000000000000000000000000000000000000000000081525060400191505060405180910390fd5b6000809054906101000a900473ffffffffffffffffffffffffffffffffffffffff1673ffffffffffffffffffffffffffffffffffffffff167ff8df31144d9c2f0f6b59d69b8b98abd5459d07f2742c4df920b25aae33c6482060405160405180910390a260008060006101000a81548173ffffffffffffffffffffffffffffffffffffffff021916908373ffffffffffffffffffffffffffffffffffffffff160217905550565b60035481565b60008060009054906101000a900473ffffffffffffffffffffffffffffffffffffffff16905090565b60008060009054906101000a900473ffffffffffffffffffffffffffffffffffffffff1673ffffffffffffffffffffffffffffffffffffffff163373ffffffffffffffffffffffffffffffffffffffff1614905090565b60096020528060005260406000206000915090505481565b60086020528060005260406000206000915090505481565b60003373ffffffffffffffffffffffffffffffffffffffff16600a83815481101515611fd057fe5b906000526020600020906004020160010160009054906101000a900473ffffffffffffffffffffffffffffffffffffffff1673ffffffffffffffffffffffffffffffffffffffff161415156120b3576040517f08c379a00000000000000000000000000000000000000000000000000000000081526004018080602001828103825260268152602001807f54686973207365617420646f6573206e6f742062656c6f6e6720746f2074686981526020017f732075736572000000000000000000000000000000000000000000000000000081525060400191505060405180910390fd5b3373ffffffffffffffffffffffffffffffffffffffff16600a838154811015156120d957fe5b906000526020600020906004020160020160009054906101000a900473ffffffffffffffffffffffffffffffffffffffff1673ffffffffffffffffffffffffffffffffffffffff16141561216b57600960003373ffffffffffffffffffffffffffffffffffffffff1673ffffffffffffffffffffffffffffffffffffffff168152602001908152602001600020600090555b600090505b6001600760003373ffffffffffffffffffffffffffffffffffffffff1673ffffffffffffffffffffffffffffffffffffffff168152602001908152602001600020805490500381101561237957600760003373ffffffffffffffffffffffffffffffffffffffff1673ffffffffffffffffffffffffffffffffffffffff1681526020019081526020016000208181548110151561220957fe5b906000526020600020015482141561236c57600760003373ffffffffffffffffffffffffffffffffffffffff1673ffffffffffffffffffffffffffffffffffffffff1681526020019081526020016000208181548110151561226757fe5b9060005260206000200160009055600760003373ffffffffffffffffffffffffffffffffffffffff1673ffffffffffffffffffffffffffffffffffffffff1681526020019081526020016000206001600760003373ffffffffffffffffffffffffffffffffffffffff1673ffffffffffffffffffffffffffffffffffffffff168152602001908152602001600020805490500381548110151561230657fe5b9060005260206000200154600760003373ffffffffffffffffffffffffffffffffffffffff1673ffffffffffffffffffffffffffffffffffffffff1681526020019081526020016000208281548110151561235d57fe5b90600052602060002001819055505b8080600101915050612170565b600760003373ffffffffffffffffffffffffffffffffffffffff1673ffffffffffffffffffffffffffffffffffffffff1681526020019081526020016000208054809190600190036123cb9190613a01565b50600b8290806001815401808255809150509060018203906000526020600020016000909192909190915055503373ffffffffffffffffffffffffffffffffffffffff166108fc600a8481548110151561242157fe5b9060005260206000209060040201600301549081150290604051600060405180830381858888f1935050505015801561245e573d6000803e3d6000fd5b506000600a8381548110151561247057fe5b906000526020600020906004020160010160006101000a81548173ffffffffffffffffffffffffffffffffffffffff021916908373ffffffffffffffffffffffffffffffffffffffff1602179055506000600a838154811015156124d057fe5b906000526020600020906004020160020160006101000a81548173ffffffffffffffffffffffffffffffffffffffff021916908373ffffffffffffffffffffffffffffffffffffffff1602179055506000600a8381548110151561253057fe5b906000526020600020906004020160030181905550600360008154809291906001019190505550600654600019167f51219a16bbaf2523d2cd0e0ffa450b949fda85877171b868d895be11ab7c63ba600a8481548110151561258e57fe5b90600052602060002090600402016000015460405180826000191660001916815260200191505060405180910390a25050565b60045481565b600080600080600080600a600960003373ffffffffffffffffffffffffffffffffffffffff1673ffffffffffffffffffffffffffffffffffffffff1681526020019081526020016000205481548110151561261e57fe5b90600052602060002090600402019050600960003373ffffffffffffffffffffffffffffffffffffffff1673ffffffffffffffffffffffffffffffffffffffff1681526020019081526020016000205481600001548260010160009054906101000a900473ffffffffffffffffffffffffffffffffffffffff168360020160009054906101000a900473ffffffffffffffffffffffffffffffffffffffff16846003015495509550955095509550509091929394565b6126dc611f21565b1515612776576040517f08c379a00000000000000000000000000000000000000000000000000000000081526004018080602001828103825260268152602001807f4f6e6c7920746865206f776e6572206d617920706572666f726d20746869732081526020017f616374696f6e000000000000000000000000000000000000000000000000000081525060400191505060405180910390fd5b6003600581111561278357fe5b600c60009054906101000a900460ff16600581111561279e57fe5b141515612813576040517f08c379a000000000000000000000000000000000000000000000000000000000815260040180806020018281038252601f8152602001807f466c69676874206d75737420626520696e204c616e646564207374617475730081525060200191505060405180910390fd5b6004600c60006101000a81548160ff0219169083600581111561283257fe5b0217905550565b612841611f21565b15156128db576040517f08c379a00000000000000000000000000000000000000000000000000000000081526004018080602001828103825260268152602001807f4f6e6c7920746865206f776e6572206d617920706572666f726d20746869732081526020017f616374696f6e000000000000000000000000000000000000000000000000000081525060400191505060405180910390fd5b80600160006101000a81548173ffffffffffffffffffffffffffffffffffffffff021916908373ffffffffffffffffffffffffffffffffffffffff16021790555050565b612927611f21565b15156129c1576040517f08c379a00000000000000000000000000000000000000000000000000000000081526004018080602001828103825260268152602001807f4f6e6c7920746865206f776e6572206d617920706572666f726d20746869732081526020017f616374696f6e000000000000000000000000000000000000000000000000000081525060400191505060405180910390fd5b6129c9611ef8565b73ffffffffffffffffffffffffffffffffffffffff16600654600019167f8fb8e8a0b20293ca4c36d58df64f030aca3d302f25e5ecb916fc857cb7402fb63073ffffffffffffffffffffffffffffffffffffffff16316040518082815260200191505060405180910390a3612a3c611ef8565b73ffffffffffffffffffffffffffffffffffffffff16ff5b612a5c611f21565b1515612af6576040517f08c379a00000000000000000000000000000000000000000000000000000000081526004018080602001828103825260268152602001807f4f6e6c7920746865206f776e6572206d617920706572666f726d20746869732081526020017f616374696f6e000000000000000000000000000000000000000000000000000081525060400191505060405180910390fd5b8060028190555050565b600080600080600080600a87815481101515612b1857fe5b906000526020600020906004020190508681600001548260010160009054906101000a900473ffffffffffffffffffffffffffffffffffffffff168360020160009054906101000a900473ffffffffffffffffffffffffffffffffffffffff168460030154955095509550955095505091939590929450565b60025481565b612b9f611f21565b1515612c39576040517f08c379a00000000000000000000000000000000000000000000000000000000081526004018080602001828103825260268152602001807f4f6e6c7920746865206f776e6572206d617920706572666f726d20746869732081526020017f616374696f6e000000000000000000000000000000000000000000000000000081525060400191505060405180910390fd5b60016005811115612c4657fe5b600c60009054906101000a900460ff166005811115612c6157fe5b141515612cd6576040517f08c379a000000000000000000000000000000000000000000000000000000000815260040180806020018281038252601d8152602001807f466c69676874206d75737420626520696e2053616c652073746174757300000081525060200191505060405180910390fd5b6002600c60006101000a81548160ff02191690836005811115612cf557fe5b0217905550565b600760205281600052604060002081815481101515612d1757fe5b90600052602060002001600091509150505481565b6000806000600760003373ffffffffffffffffffffffffffffffffffffffff1673ffffffffffffffffffffffffffffffffffffffff16815260200190815260200160002080549050111515612e0f576040517f08c379a00000000000000000000000000000000000000000000000000000000081526004018080602001828103825260258152602001807f53656e646572206d7573742068617665207365617473206f6e2074686973206681526020017f6c6967687400000000000000000000000000000000000000000000000000000081525060400191505060405180910390fd5b600580811115612e1b57fe5b600c60009054906101000a900460ff166005811115612e3657fe5b141515612ed1576040517f08c379a00000000000000000000000000000000000000000000000000000000081526004018080602001828103825260228152602001807f466c69676874206d75737420626520696e2043616e63656c6c6564207374617481526020017f757300000000000000000000000000000000000000000000000000000000000081525060400191505060405180910390fd5b600091505b600760003373ffffffffffffffffffffffffffffffffffffffff1673ffffffffffffffffffffffffffffffffffffffff16815260200190815260200160002080549050811015612fe257600760003373ffffffffffffffffffffffffffffffffffffffff1673ffffffffffffffffffffffffffffffffffffffff16815260200190815260200160002081815481101515612f6c57fe5b906000526020600020015482019150600760003373ffffffffffffffffffffffffffffffffffffffff1673ffffffffffffffffffffffffffffffffffffffff16815260200190815260200160002081815481101515612fc757fe5b90600052602060002001600090558080600101915050612ed6565b6000600760003373ffffffffffffffffffffffffffffffffffffffff1673ffffffffffffffffffffffffffffffffffffffff1681526020019081526020016000208161302e9190613a01565b503373ffffffffffffffffffffffffffffffffffffffff16600654600019167fef721ab9dbabd936e63830e699f561906f54d10c719c44613ac44907d7f01a11846040518082815260200191505060405180910390a33373ffffffffffffffffffffffffffffffffffffffff166108fc839081150290604051600060405180830381858888f193505050501580156130ca573d6000803e3d6000fd5b505050565b600160009054906101000a900473ffffffffffffffffffffffffffffffffffffffff1681565b6130fd611f21565b1515613197576040517f08c379a00000000000000000000000000000000000000000000000000000000081526004018080602001828103825260268152602001807f4f6e6c7920746865206f776e6572206d617920706572666f726d20746869732081526020017f616374696f6e000000000000000000000000000000000000000000000000000081525060400191505060405180910390fd5b6131a081613878565b50565b6000600a60806040519081016040528084600019168152602001600073ffffffffffffffffffffffffffffffffffffffff168152602001600073ffffffffffffffffffffffffffffffffffffffff1681526020016000815250908060018154018082558091505090600182039060005260206000209060040201600090919290919091506000820151816000019060001916905560208201518160010160006101000a81548173ffffffffffffffffffffffffffffffffffffffff021916908373ffffffffffffffffffffffffffffffffffffffff16021790555060408201518160020160006101000a81548173ffffffffffffffffffffffffffffffffffffffff021916908373ffffffffffffffffffffffffffffffffffffffff160217905550606082015181600301555050506001600a8054905003600860008460001916600019168152602001908152602001600020819055506001600a80549050039050919050565b600760003373ffffffffffffffffffffffffffffffffffffffff1673ffffffffffffffffffffffffffffffffffffffff1681526020019081526020016000206004549080600181540180825580915050906001820390600052602060002001600090919290919091505550600454600960003373ffffffffffffffffffffffffffffffffffffffff1673ffffffffffffffffffffffffffffffffffffffff1681526020019081526020016000208190555033600a6004548154811015156133cd57fe5b906000526020600020906004020160010160006101000a81548173ffffffffffffffffffffffffffffffffffffffff021916908373ffffffffffffffffffffffffffffffffffffffff16021790555033600a60045481548110151561342e57fe5b906000526020600020906004020160020160006101000a81548173ffffffffffffffffffffffffffffffffffffffff021916908373ffffffffffffffffffffffffffffffffffffffff160217905550600554600a60045481548110151561349157fe5b906000526020600020906004020160030181905550600a6004548154811015156134b757fe5b906000526020600020906004020160010160009054906101000a900473ffffffffffffffffffffffffffffffffffffffff1673ffffffffffffffffffffffffffffffffffffffff16600654600019167f10fc8468ae793318338006260b422c51971f60e9b1839f18180374c0468cfff1600a60045481548110151561353857fe5b90600052602060002090600402016000015460405180826000191660001916815260200191505060405180910390a360046000815480929190600101919050555060036000815480929190600190039190505550565b60005b818110156135ae576135a161330a565b8080600101915050613591565b5050565b6000600b6001600b80549050038154811015156135cb57fe5b90600052602060002001549050600b6001600b80549050038154811015156135ef57fe5b9060005260206000200160009055600b8054809190600190036136129190613a01565b5060036000815480929190600190039190505550600760003373ffffffffffffffffffffffffffffffffffffffff1673ffffffffffffffffffffffffffffffffffffffff16815260200190815260200160002081908060018154018082558091505090600182039060005260206000200160009091929091909150555080600960003373ffffffffffffffffffffffffffffffffffffffff1673ffffffffffffffffffffffffffffffffffffffff1681526020019081526020016000208190555033600a828154811015156136e357fe5b906000526020600020906004020160010160006101000a81548173ffffffffffffffffffffffffffffffffffffffff021916908373ffffffffffffffffffffffffffffffffffffffff16021790555033600a8281548110151561374257fe5b906000526020600020906004020160020160006101000a81548173ffffffffffffffffffffffffffffffffffffffff021916908373ffffffffffffffffffffffffffffffffffffffff160217905550600554600a828154811015156137a357fe5b906000526020600020906004020160030181905550600a818154811015156137c757fe5b906000526020600020906004020160010160009054906101000a900473ffffffffffffffffffffffffffffffffffffffff1673ffffffffffffffffffffffffffffffffffffffff16600654600019167f10fc8468ae793318338006260b422c51971f60e9b1839f18180374c0468cfff1600a8481548110151561384657fe5b90600052602060002090600402016000015460405180826000191660001916815260200191505060405180910390a350565b600073ffffffffffffffffffffffffffffffffffffffff168173ffffffffffffffffffffffffffffffffffffffff1614151515613943576040517f08c379a00000000000000000000000000000000000000000000000000000000081526004018080602001828103825260358152602001807f4f776e6572736869702063616e6e6f74206265207472616e736665727265642081526020017f746f20616e20696e76616c69642061646472657373000000000000000000000081525060400191505060405180910390fd5b8073ffffffffffffffffffffffffffffffffffffffff166000809054906101000a900473ffffffffffffffffffffffffffffffffffffffff1673ffffffffffffffffffffffffffffffffffffffff167f8be0079c531659141344cd1fd0a4f28419497f9722a3daafe3b4186f6b6457e060405160405180910390a3806000806101000a81548173ffffffffffffffffffffffffffffffffffffffff021916908373ffffffffffffffffffffffffffffffffffffffff16021790555050565b815481835581811115613a2857818360005260206000209182019101613a279190613a2d565b5b505050565b613a4f91905b80821115613a4b576000816000905550600101613a33565b5090565b905600a165627a7a723058204ae47ab4d71cd040d4844447743e67cb2d37ad581ced91a59c905f43a2216c920029",
  "source": "pragma solidity ^0.4.24;\n\nimport \"./Ownable.sol\";\n\ncontract Flight is Ownable {\n\n    event TicketPurchased(address indexed purchaser);\n    event FlightEnabled(bytes32 indexed flightId);\n    event FlightLanded(bytes32 indexed flightId);\n    event FlightCancelled(bytes32 indexed flightId);\n    event SeatBooked(bytes32 indexed flightId, address indexed owner, bytes32 uuid);\n    event SeatCancelled(bytes32 indexed flightId, bytes32 uuid);\n    event SeatTransferred(bytes32 indexed flightId, address indexed owner, bytes32 uuid);\n    event RefundSent(bytes32 indexed flightId, address indexed owner, uint amount);\n    event FlightConcluded(bytes32 indexed flightId, address indexed owner, uint amount);\n\n    event Dump(bytes32 debugString, uint debugInteger);\n\n    address public regulator;\n\n    uint public seatCount;\n    uint public seatsRemaining;\n    uint public seatPurchaseIndex = 0;\n    uint public seatPrice;\n\n    bytes32 public flightId;\n\n    struct Seat {\n        bytes32 uuid;\n        address owner;\n        address passenger;\n        uint price;\n    }\n\n    struct Rarity {\n        address starter;\n        uint price;\n    }\n\n    mapping(address => uint[]) public ownerSeats;\n    mapping(bytes32 => uint) public seatIndexFromUuid;\n    mapping(address => uint) public passengerSeat;\n    Seat[] public seats;\n\n    uint[] private skippedSeats;\n\n    enum FlightStatus { Presale, Sale, Closed, Landed, Finalised, Cancelled }\n    FlightStatus status;\n\n    constructor() public {\n        status = FlightStatus.Presale;\n    }\n\n    function addRegulator(address _regulator) public onlyOwner {\n        regulator = _regulator;\n    }\n\n    function setSeatPrice(uint _seatPrice) public onlyOwner {\n        seatPrice = _seatPrice;\n    }\n\n    function enableFlight() public onlyOwner {\n        require(seatCount > 0, \"Flight must have seats\");\n        require(regulator != 0, \"Flight must have a regulator\");\n        require(flightId != \"\", \"Flight must have an ID\");\n        status = FlightStatus.Sale;\n        emit FlightEnabled(flightId);\n    }\n\n    function getOwnerSeat(uint _index) public view hasTicket returns(uint) {\n        return ownerSeats[msg.sender][_index];\n    }\n\n    function getOwnerSeats() public view hasTicket returns(uint[]) {\n        return ownerSeats[msg.sender];\n    }\n\n    function transferSeat(uint _seatIndex, address _transferTo) public hasTicket {\n        require(seats[_seatIndex].owner == msg.sender, \"You are not the owner of this seat\");\n        seats[_seatIndex].passenger = _transferTo;\n        passengerSeat[_transferTo] = _seatIndex;\n\n        emit SeatTransferred(flightId, msg.sender, seats[_seatIndex].uuid);\n    }\n\n    function closeFlight() public onlyOwner onlySale {\n        status = FlightStatus.Closed;\n    }\n\n    function landFlight() public onlyOwner onlyClosed {\n        status = FlightStatus.Landed;\n        emit FlightLanded(flightId);\n    }\n\n    function finaliseFlight() public onlyOwner onlyLanded {\n        status = FlightStatus.Finalised;\n    }\n\n    function cancelFlight() public onlyOwner onlyFinalised {\n        status = FlightStatus.Cancelled;\n    }\n\n    function getStatus() public view returns(FlightStatus) {\n        return status;\n    }\n\n    function setFlightId(bytes32 _flightId) public onlyOwner {\n        flightId = _flightId;\n    }\n\n    function setSeatCount(uint _seatCount) public onlyOwner {\n        seatCount = _seatCount;\n    }\n\n    function setRemainingSeats(uint _seatsRemaining) public onlyOwner {\n        seatsRemaining = _seatsRemaining;\n    }\n\n    /**\n     * Passenger Actions\n     */\n\n    function book(uint numberOfSeats) public payable onlySale {\n        require(msg.value > 0, \"Price must be greater than zero\");\n        require(numberOfSeats > 0, \"Number of seats cannot be zero\");\n        require(msg.value == seatPrice * numberOfSeats, \"Value must be the number of seats multiplied by the current price\");\n        require(numberOfSeats <= seatsRemaining, \"There are not enough seats to make this booking\");\n\n        if (numberOfSeats == 1 && skippedSeats.length == 0) {\n            bookOneSeat();\n        } else if (numberOfSeats > 1) {\n            bookMultipleSeats(numberOfSeats);\n        } else if (numberOfSeats == 1 && skippedSeats.length > 0) {\n            bookSkippedSeat();\n        }\n    }\n\n    function loadSeat(bytes32 _uuid) public returns(uint) {\n        seats.push(Seat(_uuid, address(0), address(0), 0));\n        seatIndexFromUuid[_uuid] = seats.length-1;\n        return seats.length-1;\n    }\n\n    function getSeatByIndex(uint _index)\n        public\n        view\n        returns(uint, bytes32, address, address, uint)\n    {\n        Seat storage searchSeat = seats[_index];\n        return (_index, searchSeat.uuid, searchSeat.owner, searchSeat.passenger, searchSeat.price);\n    }\n\n    function getSeatByUuid(bytes32 _uuid)\n        public\n        view\n        returns(uint, bytes32, address, address, uint)\n    {\n        Seat storage searchSeat = seats[seatIndexFromUuid[_uuid]];\n        return (seatIndexFromUuid[_uuid], _uuid, searchSeat.owner, searchSeat.passenger, searchSeat.price);\n    }\n\n    function getPassengerSeat() public view returns(uint, bytes32, address, address, uint) {\n        Seat storage searchSeat = seats[passengerSeat[msg.sender]];\n        return (passengerSeat[msg.sender], searchSeat.uuid, searchSeat.owner, searchSeat.passenger, searchSeat.price);\n    }\n\n    function bookOneSeat() private {\n        ownerSeats[msg.sender].push(seatPurchaseIndex);\n        passengerSeat[msg.sender] = seatPurchaseIndex;\n\n        seats[seatPurchaseIndex].owner = msg.sender;\n        seats[seatPurchaseIndex].passenger = msg.sender;\n        seats[seatPurchaseIndex].price = seatPrice;\n\n        emit SeatBooked(flightId, seats[seatPurchaseIndex].owner, seats[seatPurchaseIndex].uuid);\n\n        seatPurchaseIndex++;\n        seatsRemaining--;\n    }\n\n    function bookSkippedSeat() private {\n\n        uint skippedSeatIndex = skippedSeats[skippedSeats.length-1];\n        delete skippedSeats[skippedSeats.length-1];\n        skippedSeats.length--;\n\n        seatsRemaining--;\n\n        ownerSeats[msg.sender].push(skippedSeatIndex);\n        passengerSeat[msg.sender] = skippedSeatIndex;\n\n        seats[skippedSeatIndex].owner = msg.sender;\n        seats[skippedSeatIndex].passenger = msg.sender;\n        seats[skippedSeatIndex].price = seatPrice;\n\n        emit SeatBooked(flightId, seats[skippedSeatIndex].owner, seats[skippedSeatIndex].uuid);\n    }\n\n    function cancelSeat(uint _seatIndex) public {\n        require(seats[_seatIndex].owner == msg.sender, \"This seat does not belong to this user\");\n\n        if (seats[_seatIndex].passenger == msg.sender) {\n            delete passengerSeat[msg.sender];\n        }\n\n        for (uint i = 0; i < ownerSeats[msg.sender].length-1; i++) {\n            if (_seatIndex == ownerSeats[msg.sender][i]) {\n                delete ownerSeats[msg.sender][i];\n                ownerSeats[msg.sender][i] = ownerSeats[msg.sender][ownerSeats[msg.sender].length-1];\n            }\n        }\n\n        ownerSeats[msg.sender].length--;\n        skippedSeats.push(_seatIndex);\n\n        msg.sender.transfer(seats[_seatIndex].price);\n\n        seats[_seatIndex].owner = address(0);\n        seats[_seatIndex].passenger = address(0);\n        seats[_seatIndex].price = 0;\n\n        seatsRemaining++;\n\n        emit SeatCancelled(flightId, seats[_seatIndex].uuid);\n    }\n\n    function bookMultipleSeats(uint _numberOfSeats) private {\n        for (uint i; i < _numberOfSeats; i++) {\n            bookOneSeat();\n        }\n    }\n\n    function getSkippedSeatCount() public view returns(uint) {\n        return skippedSeats.length;\n    }\n\n    function requestRefund() public hasTicket onlyCancelled {\n        uint totalRefund = 0;\n        for(uint i; i < ownerSeats[msg.sender].length; i++){\n            totalRefund += ownerSeats[msg.sender][i];\n            delete ownerSeats[msg.sender][i];\n        }\n        ownerSeats[msg.sender].length = 0;\n\n        emit RefundSent(flightId, msg.sender, totalRefund);\n        msg.sender.transfer(totalRefund);\n    }\n\n    function concludeFlight() public onlyOwner {\n        emit FlightConcluded(flightId, owner(), address(this).balance);\n        selfdestruct(owner());\n    }\n\n    /**\n     * Modifiers\n     */\n\n    modifier onlyRegulator(){\n        require(msg.sender == regulator, \"Sender must be a regulator\");\n        _;\n    }\n\n    modifier onlyPresale(){\n        require(status == FlightStatus.Presale, \"Flight must be in Presale status\");\n        _;\n    }\n\n    modifier onlySale(){\n        require(status == FlightStatus.Sale, \"Flight must be in Sale status\");\n        _;\n    }\n\n    modifier onlyClosed(){\n        require(status == FlightStatus.Closed, \"Flight must be in Closed status\");\n        _;\n    }\n\n    modifier onlyLanded(){\n        require(status == FlightStatus.Landed, \"Flight must be in Landed status\");\n        _;\n    }\n\n    modifier onlyFinalised(){\n        require(status == FlightStatus.Finalised, \"Flight must be in Finalised status\");\n        _;\n    }\n\n    modifier onlyCancelled(){\n        require(status == FlightStatus.Cancelled, \"Flight must be in Cancelled status\");\n        _;\n    }\n\n    modifier hasTicket(){\n        require(ownerSeats[msg.sender].length > 0, \"Sender must have seats on this flight\");\n        _;\n    }\n}",
  "sourcePath": "/Users/matt/Code/fairline-contract/contracts/Flight.sol",
  "compiler": {
    "name": "solc",
    "version": "0.4.24+commit.e67f0147.Emscripten.clang"
  },
  "schemaVersion": "3.0.0-beta.0",
  "updatedAt": "2018-09-28T06:19:36.550Z"
}