{
  "contractName": "Flight",
  "abi": [
    {
      "constant": true,
      "inputs": [],
      "name": "_status",
      "outputs": [
        {
          "name": "",
          "type": "uint8"
        }
      ],
      "payable": false,
      "stateMutability": "view",
      "type": "function",
      "signature": "0x0fb3844c"
    },
    {
      "constant": true,
      "inputs": [],
      "name": "_flightId",
      "outputs": [
        {
          "name": "",
          "type": "bytes32"
        }
      ],
      "payable": false,
      "stateMutability": "view",
      "type": "function",
      "signature": "0x1b0d2a68"
    },
    {
      "constant": true,
      "inputs": [],
      "name": "_seatPurchaseIndex",
      "outputs": [
        {
          "name": "",
          "type": "uint256"
        }
      ],
      "payable": false,
      "stateMutability": "view",
      "type": "function",
      "signature": "0x580c4946"
    },
    {
      "constant": true,
      "inputs": [],
      "name": "_seatsRemaining",
      "outputs": [
        {
          "name": "",
          "type": "uint256"
        }
      ],
      "payable": false,
      "stateMutability": "view",
      "type": "function",
      "signature": "0x6e1fc519"
    },
    {
      "constant": true,
      "inputs": [],
      "name": "_regulator",
      "outputs": [
        {
          "name": "",
          "type": "address"
        }
      ],
      "payable": false,
      "stateMutability": "view",
      "type": "function",
      "signature": "0x83a3e4d3"
    },
    {
      "constant": true,
      "inputs": [
        {
          "name": "",
          "type": "address"
        },
        {
          "name": "",
          "type": "uint256"
        }
      ],
      "name": "_ownerSeats",
      "outputs": [
        {
          "name": "",
          "type": "uint256"
        }
      ],
      "payable": false,
      "stateMutability": "view",
      "type": "function",
      "signature": "0x89b77f1b"
    },
    {
      "constant": true,
      "inputs": [],
      "name": "_seatCount",
      "outputs": [
        {
          "name": "",
          "type": "uint256"
        }
      ],
      "payable": false,
      "stateMutability": "view",
      "type": "function",
      "signature": "0x8c5d008a"
    },
    {
      "constant": true,
      "inputs": [
        {
          "name": "",
          "type": "bytes32"
        }
      ],
      "name": "_seatIndexFromUuid",
      "outputs": [
        {
          "name": "",
          "type": "uint256"
        }
      ],
      "payable": false,
      "stateMutability": "view",
      "type": "function",
      "signature": "0xadbc2d76"
    },
    {
      "constant": true,
      "inputs": [],
      "name": "_owner",
      "outputs": [
        {
          "name": "",
          "type": "address"
        }
      ],
      "payable": false,
      "stateMutability": "view",
      "type": "function",
      "signature": "0xb2bdfa7b"
    },
    {
      "constant": true,
      "inputs": [
        {
          "name": "",
          "type": "address"
        }
      ],
      "name": "_passengerSeat",
      "outputs": [
        {
          "name": "",
          "type": "uint256"
        }
      ],
      "payable": false,
      "stateMutability": "view",
      "type": "function",
      "signature": "0xb794a5eb"
    },
    {
      "constant": true,
      "inputs": [],
      "name": "_seatPrice",
      "outputs": [
        {
          "name": "",
          "type": "uint256"
        }
      ],
      "payable": false,
      "stateMutability": "view",
      "type": "function",
      "signature": "0xea5a3828"
    },
    {
      "constant": true,
      "inputs": [
        {
          "name": "",
          "type": "uint256"
        }
      ],
      "name": "_seats",
      "outputs": [
        {
          "name": "uuid",
          "type": "bytes32"
        },
        {
          "name": "owner",
          "type": "address"
        },
        {
          "name": "passenger",
          "type": "address"
        },
        {
          "name": "price",
          "type": "uint256"
        }
      ],
      "payable": false,
      "stateMutability": "view",
      "type": "function",
      "signature": "0xed9fb5dd"
    },
    {
      "inputs": [
        {
          "name": "flightId",
          "type": "bytes32"
        }
      ],
      "payable": false,
      "stateMutability": "nonpayable",
      "type": "constructor",
      "signature": "constructor"
    },
    {
      "anonymous": false,
      "inputs": [
        {
          "indexed": true,
          "name": "purchaser",
          "type": "address"
        }
      ],
      "name": "TicketPurchased",
      "type": "event",
      "signature": "0x23443ac3afaec974c2d4368824912f61a50fee541bcc94ec52414ba6a9b14aab"
    },
    {
      "anonymous": false,
      "inputs": [
        {
          "indexed": true,
          "name": "flightId",
          "type": "bytes32"
        }
      ],
      "name": "FlightEnabled",
      "type": "event",
      "signature": "0x296d469580368394d8900bf6d30b751620d09fdda0232dc67a2097955bf54d4c"
    },
    {
      "anonymous": false,
      "inputs": [
        {
          "indexed": true,
          "name": "flightId",
          "type": "bytes32"
        }
      ],
      "name": "FlightLanded",
      "type": "event",
      "signature": "0xd04aa9134d8671223bcf1a1e9772787b447d75097b41dbda4f41feae404140b8"
    },
    {
      "anonymous": false,
      "inputs": [
        {
          "indexed": true,
          "name": "flightId",
          "type": "bytes32"
        }
      ],
      "name": "FlightCancelled",
      "type": "event",
      "signature": "0xd41a2b5527287431a6eb7b2498cbff5d67716e8ced3218eef1177a628d36388f"
    },
    {
      "anonymous": false,
      "inputs": [
        {
          "indexed": true,
          "name": "flightId",
          "type": "bytes32"
        },
        {
          "indexed": true,
          "name": "owner",
          "type": "address"
        },
        {
          "indexed": false,
          "name": "uuid",
          "type": "bytes32"
        }
      ],
      "name": "SeatBooked",
      "type": "event",
      "signature": "0x10fc8468ae793318338006260b422c51971f60e9b1839f18180374c0468cfff1"
    },
    {
      "anonymous": false,
      "inputs": [
        {
          "indexed": true,
          "name": "flightId",
          "type": "bytes32"
        },
        {
          "indexed": false,
          "name": "uuid",
          "type": "bytes32"
        }
      ],
      "name": "SeatCancelled",
      "type": "event",
      "signature": "0x51219a16bbaf2523d2cd0e0ffa450b949fda85877171b868d895be11ab7c63ba"
    },
    {
      "anonymous": false,
      "inputs": [
        {
          "indexed": true,
          "name": "flightId",
          "type": "bytes32"
        },
        {
          "indexed": true,
          "name": "owner",
          "type": "address"
        },
        {
          "indexed": false,
          "name": "uuid",
          "type": "bytes32"
        }
      ],
      "name": "SeatTransferred",
      "type": "event",
      "signature": "0xed9dbc00871ab66fe91b702825c088aad8afa52119bc6d89817a301b553ce04c"
    },
    {
      "anonymous": false,
      "inputs": [
        {
          "indexed": true,
          "name": "flightId",
          "type": "bytes32"
        },
        {
          "indexed": true,
          "name": "owner",
          "type": "address"
        },
        {
          "indexed": false,
          "name": "amount",
          "type": "uint256"
        }
      ],
      "name": "RefundSent",
      "type": "event",
      "signature": "0xef721ab9dbabd936e63830e699f561906f54d10c719c44613ac44907d7f01a11"
    },
    {
      "anonymous": false,
      "inputs": [
        {
          "indexed": true,
          "name": "flightId",
          "type": "bytes32"
        },
        {
          "indexed": true,
          "name": "owner",
          "type": "address"
        },
        {
          "indexed": false,
          "name": "amount",
          "type": "uint256"
        }
      ],
      "name": "FlightConcluded",
      "type": "event",
      "signature": "0x8fb8e8a0b20293ca4c36d58df64f030aca3d302f25e5ecb916fc857cb7402fb6"
    },
    {
      "constant": false,
      "inputs": [
        {
          "name": "regulator",
          "type": "address"
        }
      ],
      "name": "addRegulator",
      "outputs": [],
      "payable": false,
      "stateMutability": "nonpayable",
      "type": "function",
      "signature": "0xac63f3c7"
    },
    {
      "constant": false,
      "inputs": [
        {
          "name": "seatPrice",
          "type": "uint256"
        }
      ],
      "name": "setSeatPrice",
      "outputs": [],
      "payable": false,
      "stateMutability": "nonpayable",
      "type": "function",
      "signature": "0x0ccc4ff3"
    },
    {
      "constant": false,
      "inputs": [],
      "name": "enableFlight",
      "outputs": [],
      "payable": false,
      "stateMutability": "nonpayable",
      "type": "function",
      "signature": "0x142e8db1"
    },
    {
      "constant": false,
      "inputs": [
        {
          "name": "_seatIndex",
          "type": "uint256"
        },
        {
          "name": "_transferTo",
          "type": "address"
        }
      ],
      "name": "transferSeat",
      "outputs": [],
      "payable": false,
      "stateMutability": "nonpayable",
      "type": "function",
      "signature": "0x67767635"
    },
    {
      "constant": false,
      "inputs": [],
      "name": "closeFlight",
      "outputs": [],
      "payable": false,
      "stateMutability": "nonpayable",
      "type": "function",
      "signature": "0xcabaed40"
    },
    {
      "constant": false,
      "inputs": [],
      "name": "landFlight",
      "outputs": [],
      "payable": false,
      "stateMutability": "nonpayable",
      "type": "function",
      "signature": "0x6d399ce6"
    },
    {
      "constant": false,
      "inputs": [],
      "name": "finaliseFlight",
      "outputs": [],
      "payable": false,
      "stateMutability": "nonpayable",
      "type": "function",
      "signature": "0xaa9b81ae"
    },
    {
      "constant": false,
      "inputs": [],
      "name": "cancelFlight",
      "outputs": [],
      "payable": false,
      "stateMutability": "nonpayable",
      "type": "function",
      "signature": "0x09aa69c2"
    },
    {
      "constant": false,
      "inputs": [
        {
          "name": "flightId",
          "type": "bytes32"
        }
      ],
      "name": "setFlightId",
      "outputs": [],
      "payable": false,
      "stateMutability": "nonpayable",
      "type": "function",
      "signature": "0x50f6511c"
    },
    {
      "constant": false,
      "inputs": [
        {
          "name": "seatCount",
          "type": "uint256"
        }
      ],
      "name": "setSeatCount",
      "outputs": [],
      "payable": false,
      "stateMutability": "nonpayable",
      "type": "function",
      "signature": "0xaf41224f"
    },
    {
      "constant": false,
      "inputs": [
        {
          "name": "seatsRemaining",
          "type": "uint256"
        }
      ],
      "name": "setRemainingSeats",
      "outputs": [],
      "payable": false,
      "stateMutability": "nonpayable",
      "type": "function",
      "signature": "0x14e69a9b"
    },
    {
      "constant": false,
      "inputs": [
        {
          "name": "numberOfSeats",
          "type": "uint256"
        }
      ],
      "name": "book",
      "outputs": [],
      "payable": true,
      "stateMutability": "payable",
      "type": "function",
      "signature": "0x1116fd04"
    },
    {
      "constant": true,
      "inputs": [],
      "name": "bookGarbage",
      "outputs": [
        {
          "name": "",
          "type": "bytes32"
        }
      ],
      "payable": false,
      "stateMutability": "view",
      "type": "function",
      "signature": "0xd2b0b227"
    },
    {
      "constant": false,
      "inputs": [
        {
          "name": "uuid",
          "type": "bytes32"
        }
      ],
      "name": "loadSeat",
      "outputs": [
        {
          "name": "",
          "type": "uint256"
        }
      ],
      "payable": false,
      "stateMutability": "nonpayable",
      "type": "function",
      "signature": "0xf815226d"
    },
    {
      "constant": true,
      "inputs": [
        {
          "name": "index",
          "type": "uint256"
        }
      ],
      "name": "getSeatByIndex",
      "outputs": [
        {
          "name": "",
          "type": "uint256"
        },
        {
          "name": "",
          "type": "bytes32"
        },
        {
          "name": "",
          "type": "address"
        },
        {
          "name": "",
          "type": "address"
        },
        {
          "name": "",
          "type": "uint256"
        }
      ],
      "payable": false,
      "stateMutability": "view",
      "type": "function",
      "signature": "0xb743795b"
    },
    {
      "constant": true,
      "inputs": [
        {
          "name": "uuid",
          "type": "bytes32"
        }
      ],
      "name": "getSeatByUuid",
      "outputs": [
        {
          "name": "",
          "type": "uint256"
        },
        {
          "name": "",
          "type": "bytes32"
        },
        {
          "name": "",
          "type": "address"
        },
        {
          "name": "",
          "type": "address"
        },
        {
          "name": "",
          "type": "uint256"
        }
      ],
      "payable": false,
      "stateMutability": "view",
      "type": "function",
      "signature": "0x2e3487e7"
    },
    {
      "constant": true,
      "inputs": [],
      "name": "getPassengerSeat",
      "outputs": [
        {
          "name": "",
          "type": "uint256"
        },
        {
          "name": "",
          "type": "bytes32"
        },
        {
          "name": "",
          "type": "address"
        },
        {
          "name": "",
          "type": "address"
        },
        {
          "name": "",
          "type": "uint256"
        }
      ],
      "payable": false,
      "stateMutability": "view",
      "type": "function",
      "signature": "0xa3bc2972"
    },
    {
      "constant": false,
      "inputs": [
        {
          "name": "seatIndex",
          "type": "uint256"
        }
      ],
      "name": "cancelSeat",
      "outputs": [],
      "payable": false,
      "stateMutability": "nonpayable",
      "type": "function",
      "signature": "0xa12a4021"
    },
    {
      "constant": true,
      "inputs": [],
      "name": "getSkippedSeatCount",
      "outputs": [
        {
          "name": "",
          "type": "uint256"
        }
      ],
      "payable": false,
      "stateMutability": "view",
      "type": "function",
      "signature": "0x5202a402"
    },
    {
      "constant": false,
      "inputs": [],
      "name": "requestRefund",
      "outputs": [],
      "payable": false,
      "stateMutability": "nonpayable",
      "type": "function",
      "signature": "0xd5cef133"
    },
    {
      "constant": false,
      "inputs": [],
      "name": "concludeFlight",
      "outputs": [],
      "payable": false,
      "stateMutability": "nonpayable",
      "type": "function",
      "signature": "0xad026a36"
    }
  ],
  "bytecode": "0x6080604052600060045534801561001557600080fd5b50604051602080613532833981018060405281019080805190602001909291905050506000600c60006101000a81548160ff0219169083600581111561005757fe5b0217905550806006816000191690555033600160006101000a81548173ffffffffffffffffffffffffffffffffffffffff021916908373ffffffffffffffffffffffffffffffffffffffff1602179055505061347a806100b86000396000f3006080604052600436106101a1576000357c0100000000000000000000000000000000000000000000000000000000900463ffffffff16806309aa69c2146101a65780630ccc4ff3146101bd5780630fb3844c146101ea5780631116fd0414610223578063142e8db11461024357806314e69a9b1461025a5780631b0d2a68146102875780632e3487e7146102ba57806350f6511c1461037b5780635202a402146103ac578063580c4946146103d757806367767635146104025780636d399ce61461044f5780636e1fc5191461046657806383a3e4d31461049157806389b77f1b146104e85780638c5d008a14610549578063a12a402114610574578063a3bc2972146105a1578063aa9b81ae14610648578063ac63f3c71461065f578063ad026a36146106a2578063adbc2d76146106b9578063af41224f146106fe578063b2bdfa7b1461072b578063b743795b14610782578063b794a5eb1461083f578063cabaed4014610896578063d2b0b227146108ad578063d5cef133146108e0578063ea5a3828146108f7578063ed9fb5dd14610922578063f815226d146109d8575b600080fd5b3480156101b257600080fd5b506101bb610a1d565b005b3480156101c957600080fd5b506101e860048036038101908080359060200190929190505050610bf1565b005b3480156101f657600080fd5b506101ff610ce6565b6040518082600581111561020f57fe5b60ff16815260200191505060405180910390f35b61024160048036038101908080359060200190929190505050610cf9565b005b34801561024f57600080fd5b50610258611052565b005b34801561026657600080fd5b506102856004803603810190808035906020019092919050505061128d565b005b34801561029357600080fd5b5061029c611382565b60405180826000191660001916815260200191505060405180910390f35b3480156102c657600080fd5b506102e96004803603810190808035600019169060200190929190505050611388565b6040518086815260200185600019166000191681526020018473ffffffffffffffffffffffffffffffffffffffff1673ffffffffffffffffffffffffffffffffffffffff1681526020018373ffffffffffffffffffffffffffffffffffffffff1673ffffffffffffffffffffffffffffffffffffffff1681526020018281526020019550505050505060405180910390f35b34801561038757600080fd5b506103aa600480360381019080803560001916906020019092919050505061144b565b005b3480156103b857600080fd5b506103c1611544565b6040518082815260200191505060405180910390f35b3480156103e357600080fd5b506103ec611551565b6040518082815260200191505060405180910390f35b34801561040e57600080fd5b5061044d60048036038101908080359060200190929190803573ffffffffffffffffffffffffffffffffffffffff169060200190929190505050611557565b005b34801561045b57600080fd5b50610464611864565b005b34801561047257600080fd5b5061047b611a45565b6040518082815260200191505060405180910390f35b34801561049d57600080fd5b506104a6611a4b565b604051808273ffffffffffffffffffffffffffffffffffffffff1673ffffffffffffffffffffffffffffffffffffffff16815260200191505060405180910390f35b3480156104f457600080fd5b50610533600480360381019080803573ffffffffffffffffffffffffffffffffffffffff16906020019092919080359060200190929190505050611a70565b6040518082815260200191505060405180910390f35b34801561055557600080fd5b5061055e611aa0565b6040518082815260200191505060405180910390f35b34801561058057600080fd5b5061059f60048036038101908080359060200190929190505050611aa6565b005b3480156105ad57600080fd5b506105b66120bf565b6040518086815260200185600019166000191681526020018473ffffffffffffffffffffffffffffffffffffffff1673ffffffffffffffffffffffffffffffffffffffff1681526020018373ffffffffffffffffffffffffffffffffffffffff1673ffffffffffffffffffffffffffffffffffffffff1681526020018281526020019550505050505060405180910390f35b34801561065457600080fd5b5061065d6121cc565b005b34801561066b57600080fd5b506106a0600480360381019080803573ffffffffffffffffffffffffffffffffffffffff16906020019092919050505061237a565b005b3480156106ae57600080fd5b506106b76124a8565b005b3480156106c557600080fd5b506106e8600480360381019080803560001916906020019092919050505061265c565b6040518082815260200191505060405180910390f35b34801561070a57600080fd5b5061072960048036038101908080359060200190929190505050612674565b005b34801561073757600080fd5b50610740612769565b604051808273ffffffffffffffffffffffffffffffffffffffff1673ffffffffffffffffffffffffffffffffffffffff16815260200191505060405180910390f35b34801561078e57600080fd5b506107ad6004803603810190808035906020019092919050505061278f565b6040518086815260200185600019166000191681526020018473ffffffffffffffffffffffffffffffffffffffff1673ffffffffffffffffffffffffffffffffffffffff1681526020018373ffffffffffffffffffffffffffffffffffffffff1673ffffffffffffffffffffffffffffffffffffffff1681526020018281526020019550505050505060405180910390f35b34801561084b57600080fd5b50610880600480360381019080803573ffffffffffffffffffffffffffffffffffffffff169060200190929190505050612820565b6040518082815260200191505060405180910390f35b3480156108a257600080fd5b506108ab612838565b005b3480156108b957600080fd5b506108c26129e6565b60405180826000191660001916815260200191505060405180910390f35b3480156108ec57600080fd5b506108f5612a0f565b005b34801561090357600080fd5b5061090c612db2565b6040518082815260200191505060405180910390f35b34801561092e57600080fd5b5061094d60048036038101908080359060200190929190505050612db8565b6040518085600019166000191681526020018473ffffffffffffffffffffffffffffffffffffffff1673ffffffffffffffffffffffffffffffffffffffff1681526020018373ffffffffffffffffffffffffffffffffffffffff1673ffffffffffffffffffffffffffffffffffffffff16815260200182815260200194505050505060405180910390f35b3480156109e457600080fd5b50610a076004803603810190808035600019169060200190929190505050612e37565b6040518082815260200191505060405180910390f35b60046005811115610a2a57fe5b600c60009054906101000a900460ff166005811115610a4557fe5b141515610ae0576040517f08c379a00000000000000000000000000000000000000000000000000000000081526004018080602001828103825260228152602001807f466c69676874206d75737420626520696e2046696e616c69736564207374617481526020017f757300000000000000000000000000000000000000000000000000000000000081525060400191505060405180910390fd5b600160009054906101000a900473ffffffffffffffffffffffffffffffffffffffff1673ffffffffffffffffffffffffffffffffffffffff163373ffffffffffffffffffffffffffffffffffffffff16141515610bcb576040517f08c379a00000000000000000000000000000000000000000000000000000000081526004018080602001828103825260268152602001807f4f6e6c7920746865206f776e6572206d617920706572666f726d20746869732081526020017f616374696f6e000000000000000000000000000000000000000000000000000081525060400191505060405180910390fd5b6005600c60006101000a81548160ff02191690836005811115610bea57fe5b0217905550565b600160009054906101000a900473ffffffffffffffffffffffffffffffffffffffff1673ffffffffffffffffffffffffffffffffffffffff163373ffffffffffffffffffffffffffffffffffffffff16141515610cdc576040517f08c379a00000000000000000000000000000000000000000000000000000000081526004018080602001828103825260268152602001807f4f6e6c7920746865206f776e6572206d617920706572666f726d20746869732081526020017f616374696f6e000000000000000000000000000000000000000000000000000081525060400191505060405180910390fd5b8060058190555050565b600c60009054906101000a900460ff1681565b60016005811115610d0657fe5b600c60009054906101000a900460ff166005811115610d2157fe5b141515610d96576040517f08c379a000000000000000000000000000000000000000000000000000000000815260040180806020018281038252601d8152602001807f466c69676874206d75737420626520696e2053616c652073746174757300000081525060200191505060405180910390fd5b600034111515610e0e576040517f08c379a000000000000000000000000000000000000000000000000000000000815260040180806020018281038252601f8152602001807f5072696365206d7573742062652067726561746572207468616e207a65726f0081525060200191505060405180910390fd5b600081111515610e86576040517f08c379a000000000000000000000000000000000000000000000000000000000815260040180806020018281038252601e8152602001807f4e756d626572206f662073656174732063616e6e6f74206265207a65726f000081525060200191505060405180910390fd5b806005540234141515610f4d576040517f08c379a00000000000000000000000000000000000000000000000000000000081526004018080602001828103825260418152602001807f56616c7565206d75737420626520746865206e756d626572206f66207365617481526020017f73206d756c7469706c696564206279207468652063757272656e74207072696381526020017f650000000000000000000000000000000000000000000000000000000000000081525060600191505060405180910390fd5b6003548111151515610fed576040517f08c379a000000000000000000000000000000000000000000000000000000000815260040180806020018281038252602f8152602001807f546865726520617265206e6f7420656e6f75676820736561747320746f206d6181526020017f6b65207468697320626f6f6b696e67000000000000000000000000000000000081525060400191505060405180910390fd5b60018114801561100257506000600b80549050145b156110145761100f612f9e565b61104f565b600181111561102a57611025612f9e565b61104e565b60018114801561103f57506000600b80549050115b1561104d5761104c613137565b5b5b5b50565b600160009054906101000a900473ffffffffffffffffffffffffffffffffffffffff1673ffffffffffffffffffffffffffffffffffffffff163373ffffffffffffffffffffffffffffffffffffffff1614151561113d576040517f08c379a00000000000000000000000000000000000000000000000000000000081526004018080602001828103825260268152602001807f4f6e6c7920746865206f776e6572206d617920706572666f726d20746869732081526020017f616374696f6e000000000000000000000000000000000000000000000000000081525060400191505060405180910390fd5b60006002541115156111b7576040517f08c379a00000000000000000000000000000000000000000000000000000000081526004018080602001828103825260168152602001807f466c69676874206d75737420686176652073656174730000000000000000000081525060200191505060405180910390fd5b60008060009054906101000a900473ffffffffffffffffffffffffffffffffffffffff1673ffffffffffffffffffffffffffffffffffffffff1614151515611267576040517f08c379a000000000000000000000000000000000000000000000000000000000815260040180806020018281038252601c8152602001807f466c69676874206d7573742068617665206120726567756c61746f720000000081525060200191505060405180910390fd5b6001600c60006101000a81548160ff0219169083600581111561128657fe5b0217905550565b600160009054906101000a900473ffffffffffffffffffffffffffffffffffffffff1673ffffffffffffffffffffffffffffffffffffffff163373ffffffffffffffffffffffffffffffffffffffff16141515611378576040517f08c379a00000000000000000000000000000000000000000000000000000000081526004018080602001828103825260268152602001807f4f6e6c7920746865206f776e6572206d617920706572666f726d20746869732081526020017f616374696f6e000000000000000000000000000000000000000000000000000081525060400191505060405180910390fd5b8060038190555050565b60065481565b600080600080600080600a600860008960001916600019168152602001908152602001600020548154811015156113bb57fe5b9060005260206000209060040201905060086000886000191660001916815260200190815260200160002054878260010160009054906101000a900473ffffffffffffffffffffffffffffffffffffffff168360020160009054906101000a900473ffffffffffffffffffffffffffffffffffffffff168460030154955095509550955095505091939590929450565b600160009054906101000a900473ffffffffffffffffffffffffffffffffffffffff1673ffffffffffffffffffffffffffffffffffffffff163373ffffffffffffffffffffffffffffffffffffffff16141515611536576040517f08c379a00000000000000000000000000000000000000000000000000000000081526004018080602001828103825260268152602001807f4f6e6c7920746865206f776e6572206d617920706572666f726d20746869732081526020017f616374696f6e000000000000000000000000000000000000000000000000000081525060400191505060405180910390fd5b806006816000191690555050565b6000600b80549050905090565b60045481565b6000600760003373ffffffffffffffffffffffffffffffffffffffff1673ffffffffffffffffffffffffffffffffffffffff16815260200190815260200160002080549050111515611637576040517f08c379a00000000000000000000000000000000000000000000000000000000081526004018080602001828103825260258152602001807f53656e646572206d7573742068617665207365617473206f6e2074686973206681526020017f6c6967687400000000000000000000000000000000000000000000000000000081525060400191505060405180910390fd5b3373ffffffffffffffffffffffffffffffffffffffff16600a8381548110151561165d57fe5b906000526020600020906004020160010160009054906101000a900473ffffffffffffffffffffffffffffffffffffffff1673ffffffffffffffffffffffffffffffffffffffff16141515611740576040517f08c379a00000000000000000000000000000000000000000000000000000000081526004018080602001828103825260228152602001807f596f7520617265206e6f7420746865206f776e6572206f66207468697320736581526020017f617400000000000000000000000000000000000000000000000000000000000081525060400191505060405180910390fd5b80600a8381548110151561175057fe5b906000526020600020906004020160020160006101000a81548173ffffffffffffffffffffffffffffffffffffffff021916908373ffffffffffffffffffffffffffffffffffffffff16021790555081600960008373ffffffffffffffffffffffffffffffffffffffff1673ffffffffffffffffffffffffffffffffffffffff168152602001908152602001600020819055503373ffffffffffffffffffffffffffffffffffffffff16600654600019167fed9dbc00871ab66fe91b702825c088aad8afa52119bc6d89817a301b553ce04c600a8581548110151561183157fe5b90600052602060002090600402016000015460405180826000191660001916815260200191505060405180910390a35050565b6002600581111561187157fe5b600c60009054906101000a900460ff16600581111561188c57fe5b141515611901576040517f08c379a000000000000000000000000000000000000000000000000000000000815260040180806020018281038252601f8152602001807f466c69676874206d75737420626520696e20436c6f736564207374617475730081525060200191505060405180910390fd5b600160009054906101000a900473ffffffffffffffffffffffffffffffffffffffff1673ffffffffffffffffffffffffffffffffffffffff163373ffffffffffffffffffffffffffffffffffffffff161415156119ec576040517f08c379a00000000000000000000000000000000000000000000000000000000081526004018080602001828103825260268152602001807f4f6e6c7920746865206f776e6572206d617920706572666f726d20746869732081526020017f616374696f6e000000000000000000000000000000000000000000000000000081525060400191505060405180910390fd5b6003600c60006101000a81548160ff02191690836005811115611a0b57fe5b0217905550600654600019167fd04aa9134d8671223bcf1a1e9772787b447d75097b41dbda4f41feae404140b860405160405180910390a2565b60035481565b6000809054906101000a900473ffffffffffffffffffffffffffffffffffffffff1681565b600760205281600052604060002081815481101515611a8b57fe5b90600052602060002001600091509150505481565b60025481565b60003373ffffffffffffffffffffffffffffffffffffffff16600a83815481101515611ace57fe5b906000526020600020906004020160010160009054906101000a900473ffffffffffffffffffffffffffffffffffffffff1673ffffffffffffffffffffffffffffffffffffffff16141515611bb1576040517f08c379a00000000000000000000000000000000000000000000000000000000081526004018080602001828103825260268152602001807f54686973207365617420646f6573206e6f742062656c6f6e6720746f2074686981526020017f732075736572000000000000000000000000000000000000000000000000000081525060400191505060405180910390fd5b3373ffffffffffffffffffffffffffffffffffffffff16600a83815481101515611bd757fe5b906000526020600020906004020160020160009054906101000a900473ffffffffffffffffffffffffffffffffffffffff1673ffffffffffffffffffffffffffffffffffffffff161415611c6957600960003373ffffffffffffffffffffffffffffffffffffffff1673ffffffffffffffffffffffffffffffffffffffff168152602001908152602001600020600090555b600090505b6001600760003373ffffffffffffffffffffffffffffffffffffffff1673ffffffffffffffffffffffffffffffffffffffff1681526020019081526020016000208054905003811015611e7757600760003373ffffffffffffffffffffffffffffffffffffffff1673ffffffffffffffffffffffffffffffffffffffff16815260200190815260200160002081815481101515611d0757fe5b9060005260206000200154821415611e6a57600760003373ffffffffffffffffffffffffffffffffffffffff1673ffffffffffffffffffffffffffffffffffffffff16815260200190815260200160002081815481101515611d6557fe5b9060005260206000200160009055600760003373ffffffffffffffffffffffffffffffffffffffff1673ffffffffffffffffffffffffffffffffffffffff1681526020019081526020016000206001600760003373ffffffffffffffffffffffffffffffffffffffff1673ffffffffffffffffffffffffffffffffffffffff1681526020019081526020016000208054905003815481101515611e0457fe5b9060005260206000200154600760003373ffffffffffffffffffffffffffffffffffffffff1673ffffffffffffffffffffffffffffffffffffffff16815260200190815260200160002082815481101515611e5b57fe5b90600052602060002001819055505b8080600101915050611c6e565b600760003373ffffffffffffffffffffffffffffffffffffffff1673ffffffffffffffffffffffffffffffffffffffff168152602001908152602001600020805480919060019003611ec991906133fd565b50600b8290806001815401808255809150509060018203906000526020600020016000909192909190915055503373ffffffffffffffffffffffffffffffffffffffff166108fc600a84815481101515611f1f57fe5b9060005260206000209060040201600301549081150290604051600060405180830381858888f19350505050158015611f5c573d6000803e3d6000fd5b506000600a83815481101515611f6e57fe5b906000526020600020906004020160010160006101000a81548173ffffffffffffffffffffffffffffffffffffffff021916908373ffffffffffffffffffffffffffffffffffffffff1602179055506000600a83815481101515611fce57fe5b906000526020600020906004020160020160006101000a81548173ffffffffffffffffffffffffffffffffffffffff021916908373ffffffffffffffffffffffffffffffffffffffff1602179055506000600a8381548110151561202e57fe5b906000526020600020906004020160030181905550600360008154809291906001019190505550600654600019167f51219a16bbaf2523d2cd0e0ffa450b949fda85877171b868d895be11ab7c63ba600a8481548110151561208c57fe5b90600052602060002090600402016000015460405180826000191660001916815260200191505060405180910390a25050565b600080600080600080600a600960003373ffffffffffffffffffffffffffffffffffffffff1673ffffffffffffffffffffffffffffffffffffffff1681526020019081526020016000205481548110151561211657fe5b90600052602060002090600402019050600960003373ffffffffffffffffffffffffffffffffffffffff1673ffffffffffffffffffffffffffffffffffffffff1681526020019081526020016000205481600001548260010160009054906101000a900473ffffffffffffffffffffffffffffffffffffffff168360020160009054906101000a900473ffffffffffffffffffffffffffffffffffffffff16846003015495509550955095509550509091929394565b600360058111156121d957fe5b600c60009054906101000a900460ff1660058111156121f457fe5b141515612269576040517f08c379a000000000000000000000000000000000000000000000000000000000815260040180806020018281038252601f8152602001807f466c69676874206d75737420626520696e204c616e646564207374617475730081525060200191505060405180910390fd5b600160009054906101000a900473ffffffffffffffffffffffffffffffffffffffff1673ffffffffffffffffffffffffffffffffffffffff163373ffffffffffffffffffffffffffffffffffffffff16141515612354576040517f08c379a00000000000000000000000000000000000000000000000000000000081526004018080602001828103825260268152602001807f4f6e6c7920746865206f776e6572206d617920706572666f726d20746869732081526020017f616374696f6e000000000000000000000000000000000000000000000000000081525060400191505060405180910390fd5b6004600c60006101000a81548160ff0219169083600581111561237357fe5b0217905550565b600160009054906101000a900473ffffffffffffffffffffffffffffffffffffffff1673ffffffffffffffffffffffffffffffffffffffff163373ffffffffffffffffffffffffffffffffffffffff16141515612465576040517f08c379a00000000000000000000000000000000000000000000000000000000081526004018080602001828103825260268152602001807f4f6e6c7920746865206f776e6572206d617920706572666f726d20746869732081526020017f616374696f6e000000000000000000000000000000000000000000000000000081525060400191505060405180910390fd5b806000806101000a81548173ffffffffffffffffffffffffffffffffffffffff021916908373ffffffffffffffffffffffffffffffffffffffff16021790555050565b600160009054906101000a900473ffffffffffffffffffffffffffffffffffffffff1673ffffffffffffffffffffffffffffffffffffffff163373ffffffffffffffffffffffffffffffffffffffff16141515612593576040517f08c379a00000000000000000000000000000000000000000000000000000000081526004018080602001828103825260268152602001807f4f6e6c7920746865206f776e6572206d617920706572666f726d20746869732081526020017f616374696f6e000000000000000000000000000000000000000000000000000081525060400191505060405180910390fd5b600160009054906101000a900473ffffffffffffffffffffffffffffffffffffffff1673ffffffffffffffffffffffffffffffffffffffff16600654600019167f8fb8e8a0b20293ca4c36d58df64f030aca3d302f25e5ecb916fc857cb7402fb63073ffffffffffffffffffffffffffffffffffffffff16316040518082815260200191505060405180910390a3600160009054906101000a900473ffffffffffffffffffffffffffffffffffffffff1673ffffffffffffffffffffffffffffffffffffffff16ff5b60086020528060005260406000206000915090505481565b600160009054906101000a900473ffffffffffffffffffffffffffffffffffffffff1673ffffffffffffffffffffffffffffffffffffffff163373ffffffffffffffffffffffffffffffffffffffff1614151561275f576040517f08c379a00000000000000000000000000000000000000000000000000000000081526004018080602001828103825260268152602001807f4f6e6c7920746865206f776e6572206d617920706572666f726d20746869732081526020017f616374696f6e000000000000000000000000000000000000000000000000000081525060400191505060405180910390fd5b8060028190555050565b600160009054906101000a900473ffffffffffffffffffffffffffffffffffffffff1681565b600080600080600080600a878154811015156127a757fe5b906000526020600020906004020190508681600001548260010160009054906101000a900473ffffffffffffffffffffffffffffffffffffffff168360020160009054906101000a900473ffffffffffffffffffffffffffffffffffffffff168460030154955095509550955095505091939590929450565b60096020528060005260406000206000915090505481565b6001600581111561284557fe5b600c60009054906101000a900460ff16600581111561286057fe5b1415156128d5576040517f08c379a000000000000000000000000000000000000000000000000000000000815260040180806020018281038252601d8152602001807f466c69676874206d75737420626520696e2053616c652073746174757300000081525060200191505060405180910390fd5b600160009054906101000a900473ffffffffffffffffffffffffffffffffffffffff1673ffffffffffffffffffffffffffffffffffffffff163373ffffffffffffffffffffffffffffffffffffffff161415156129c0576040517f08c379a00000000000000000000000000000000000000000000000000000000081526004018080602001828103825260268152602001807f4f6e6c7920746865206f776e6572206d617920706572666f726d20746869732081526020017f616374696f6e000000000000000000000000000000000000000000000000000081525060400191505060405180910390fd5b6002600c60006101000a81548160ff021916908360058111156129df57fe5b0217905550565b6000600a60038154811015156129f857fe5b906000526020600020906004020160000154905090565b6000806000600760003373ffffffffffffffffffffffffffffffffffffffff1673ffffffffffffffffffffffffffffffffffffffff16815260200190815260200160002080549050111515612af2576040517f08c379a00000000000000000000000000000000000000000000000000000000081526004018080602001828103825260258152602001807f53656e646572206d7573742068617665207365617473206f6e2074686973206681526020017f6c6967687400000000000000000000000000000000000000000000000000000081525060400191505060405180910390fd5b600580811115612afe57fe5b600c60009054906101000a900460ff166005811115612b1957fe5b141515612bb4576040517f08c379a00000000000000000000000000000000000000000000000000000000081526004018080602001828103825260228152602001807f466c69676874206d75737420626520696e2043616e63656c6c6564207374617481526020017f757300000000000000000000000000000000000000000000000000000000000081525060400191505060405180910390fd5b600091505b600760003373ffffffffffffffffffffffffffffffffffffffff1673ffffffffffffffffffffffffffffffffffffffff16815260200190815260200160002080549050811015612cc557600760003373ffffffffffffffffffffffffffffffffffffffff1673ffffffffffffffffffffffffffffffffffffffff16815260200190815260200160002081815481101515612c4f57fe5b906000526020600020015482019150600760003373ffffffffffffffffffffffffffffffffffffffff1673ffffffffffffffffffffffffffffffffffffffff16815260200190815260200160002081815481101515612caa57fe5b90600052602060002001600090558080600101915050612bb9565b6000600760003373ffffffffffffffffffffffffffffffffffffffff1673ffffffffffffffffffffffffffffffffffffffff16815260200190815260200160002081612d1191906133fd565b503373ffffffffffffffffffffffffffffffffffffffff16600654600019167fef721ab9dbabd936e63830e699f561906f54d10c719c44613ac44907d7f01a11846040518082815260200191505060405180910390a33373ffffffffffffffffffffffffffffffffffffffff166108fc839081150290604051600060405180830381858888f19350505050158015612dad573d6000803e3d6000fd5b505050565b60055481565b600a81815481101515612dc757fe5b90600052602060002090600402016000915090508060000154908060010160009054906101000a900473ffffffffffffffffffffffffffffffffffffffff16908060020160009054906101000a900473ffffffffffffffffffffffffffffffffffffffff16908060030154905084565b6000600a60806040519081016040528084600019168152602001600073ffffffffffffffffffffffffffffffffffffffff168152602001600073ffffffffffffffffffffffffffffffffffffffff1681526020016000815250908060018154018082558091505090600182039060005260206000209060040201600090919290919091506000820151816000019060001916905560208201518160010160006101000a81548173ffffffffffffffffffffffffffffffffffffffff021916908373ffffffffffffffffffffffffffffffffffffffff16021790555060408201518160020160006101000a81548173ffffffffffffffffffffffffffffffffffffffff021916908373ffffffffffffffffffffffffffffffffffffffff160217905550606082015181600301555050506001600a8054905003600860008460001916600019168152602001908152602001600020819055506001600a80549050039050919050565b600760003373ffffffffffffffffffffffffffffffffffffffff1673ffffffffffffffffffffffffffffffffffffffff1681526020019081526020016000206004549080600181540180825580915050906001820390600052602060002001600090919290919091505550600454600960003373ffffffffffffffffffffffffffffffffffffffff1673ffffffffffffffffffffffffffffffffffffffff16815260200190815260200160002081905550600a60045481548110151561306057fe5b906000526020600020906004020160010160009054906101000a900473ffffffffffffffffffffffffffffffffffffffff1673ffffffffffffffffffffffffffffffffffffffff16600654600019167f10fc8468ae793318338006260b422c51971f60e9b1839f18180374c0468cfff1600a6004548154811015156130e157fe5b90600052602060002090600402016000015460405180826000191660001916815260200191505060405180910390a360046000815480929190600101919050555060036000815480929190600190039190505550565b6000600b6001600b805490500381548110151561315057fe5b90600052602060002001549050600b6001600b805490500381548110151561317457fe5b9060005260206000200160009055600b80548091906001900361319791906133fd565b5060036000815480929190600190039190505550600760003373ffffffffffffffffffffffffffffffffffffffff1673ffffffffffffffffffffffffffffffffffffffff16815260200190815260200160002081908060018154018082558091505090600182039060005260206000200160009091929091909150555080600960003373ffffffffffffffffffffffffffffffffffffffff1673ffffffffffffffffffffffffffffffffffffffff1681526020019081526020016000208190555033600a8281548110151561326857fe5b906000526020600020906004020160010160006101000a81548173ffffffffffffffffffffffffffffffffffffffff021916908373ffffffffffffffffffffffffffffffffffffffff16021790555033600a828154811015156132c757fe5b906000526020600020906004020160020160006101000a81548173ffffffffffffffffffffffffffffffffffffffff021916908373ffffffffffffffffffffffffffffffffffffffff160217905550600554600a8281548110151561332857fe5b906000526020600020906004020160030181905550600a8181548110151561334c57fe5b906000526020600020906004020160010160009054906101000a900473ffffffffffffffffffffffffffffffffffffffff1673ffffffffffffffffffffffffffffffffffffffff16600654600019167f10fc8468ae793318338006260b422c51971f60e9b1839f18180374c0468cfff1600a848154811015156133cb57fe5b90600052602060002090600402016000015460405180826000191660001916815260200191505060405180910390a350565b815481835581811115613424578183600052602060002091820191016134239190613429565b5b505050565b61344b91905b8082111561344757600081600090555060010161342f565b5090565b905600a165627a7a72305820dfb4d1fa02f1d6f974c6d4ccde48e3968d1ce32d63607314ea02bd11f101c67a0029",
  "source": "pragma solidity ^0.4.25;\n\ncontract Flight {\n\n    event TicketPurchased(address indexed purchaser);\n    event FlightEnabled(bytes32 indexed flightId);\n    event FlightLanded(bytes32 indexed flightId);\n    event FlightCancelled(bytes32 indexed flightId);\n    event SeatBooked(bytes32 indexed flightId, address indexed owner, bytes32 uuid);\n    event SeatCancelled(bytes32 indexed flightId, bytes32 uuid);\n    event SeatTransferred(bytes32 indexed flightId, address indexed owner, bytes32 uuid);\n    event RefundSent(bytes32 indexed flightId, address indexed owner, uint amount);\n    event FlightConcluded(bytes32 indexed flightId, address indexed owner, uint amount);\n\n    address public _regulator;\n    address public _owner;\n\n    uint public _seatCount;\n    uint public _seatsRemaining;\n    uint public _seatPurchaseIndex = 0;\n    uint public _seatPrice;\n\n    bytes32 public _flightId;\n\n    struct Seat {\n        bytes32 uuid;\n        address owner;\n        address passenger;\n        uint price;\n    }\n\n    mapping(address => uint[]) public _ownerSeats;\n    mapping(bytes32 => uint) public _seatIndexFromUuid;\n    mapping(address => uint) public _passengerSeat;\n\n    Seat[] public _seats;\n\n    uint[] private _skippedSeats;\n\n    enum FlightStatus { Presale, Sale, Closed, Landed, Finalised, Cancelled }\n    FlightStatus public _status;\n\n    constructor(bytes32 flightId) public {\n        _status = FlightStatus.Presale;\n        _flightId = flightId;\n        _owner = msg.sender;\n    }\n\n    function addRegulator(address regulator) public {\n        require(msg.sender == _owner, \"Only the owner may perform this action\");\n        _regulator = regulator;\n    }\n\n    function setSeatPrice(uint seatPrice) public {\n        require(msg.sender == _owner, \"Only the owner may perform this action\");\n        _seatPrice = seatPrice;\n    }\n\n    function enableFlight() public {\n        require(msg.sender == _owner, \"Only the owner may perform this action\");\n        require(_seatCount > 0, \"Flight must have seats\");\n        require(_regulator != 0, \"Flight must have a regulator\");\n        // require(_flightId != \"\", \"Flight must have an ID\");\n        _status = FlightStatus.Sale;\n        //emit FlightEnabled(_flightId);\n    }\n\n    // function getOwnerSeats() public view hasTicket returns(uint[]) {\n    //     return _ownerSeats[msg.sender];\n\n\n    // }\n\n    // function getOwnerSeats() public view returns (\n    //     bytes32[] uuid,\n    //     address[] owner,\n    //     address[] passenger,\n    //     uint256[] price\n    // ) {\n    //     uuid = new bytes32[](_ownerSeats[msg.sender].length);\n    //     owner = new address[](_ownerSeats[msg.sender].length);\n    //     passenger = new address[](_ownerSeats[msg.sender].length);\n    //     price = new uint256[](_ownerSeats[msg.sender].length);\n\n    //     for(uint256 i = 0; i < _ownerSeats[msg.sender].length; i++) {\n    //         Seat memory currentSeat = _seats[_ownerSeats[msg.sender][i]];\n    //         uuid[i] = currentSeat.uuid;\n    //         owner[i] = currentSeat.owner;\n    //         passenger[i] = currentSeat.passenger;\n    //         price[i] = currentSeat.price;\n    //     }\n    // }\n\n    function transferSeat(uint _seatIndex, address _transferTo) public hasTicket {\n        require(_seats[_seatIndex].owner == msg.sender, \"You are not the owner of this seat\");\n        _seats[_seatIndex].passenger = _transferTo;\n        _passengerSeat[_transferTo] = _seatIndex;\n\n        emit SeatTransferred(_flightId, msg.sender, _seats[_seatIndex].uuid);\n    }\n\n    function closeFlight() public onlySale {\n        require(msg.sender == _owner, \"Only the owner may perform this action\");\n        _status = FlightStatus.Closed;\n    }\n\n    function landFlight() public onlyClosed {\n        require(msg.sender == _owner, \"Only the owner may perform this action\");\n        _status = FlightStatus.Landed;\n        emit FlightLanded(_flightId);\n    }\n\n    function finaliseFlight() public onlyLanded {\n        require(msg.sender == _owner, \"Only the owner may perform this action\");\n        _status = FlightStatus.Finalised;\n    }\n\n    function cancelFlight() public onlyFinalised {\n        require(msg.sender == _owner, \"Only the owner may perform this action\");\n        _status = FlightStatus.Cancelled;\n    }\n\n    function setFlightId(bytes32 flightId) public {\n        require(msg.sender == _owner, \"Only the owner may perform this action\");\n        _flightId = flightId;\n    }\n\n    function setSeatCount(uint seatCount) public {\n        require(msg.sender == _owner, \"Only the owner may perform this action\");\n        _seatCount = seatCount;\n    }\n\n    function setRemainingSeats(uint seatsRemaining) public {\n        require(msg.sender == _owner, \"Only the owner may perform this action\");\n        _seatsRemaining = seatsRemaining;\n    }\n\n    /**\n     * Passenger Actions\n     */\n\n    function book(uint numberOfSeats) public payable onlySale {\n        require(msg.value > 0, \"Price must be greater than zero\");\n        require(numberOfSeats > 0, \"Number of seats cannot be zero\");\n        require(msg.value == _seatPrice * numberOfSeats, \"Value must be the number of seats multiplied by the current price\");\n        require(numberOfSeats <= _seatsRemaining, \"There are not enough seats to make this booking\");\n\n        if (numberOfSeats == 1 && _skippedSeats.length == 0) {\n            bookOneSeat();\n        } else if (numberOfSeats > 1) {\n            //bookMultipleSeats(numberOfSeats);\n            bookOneSeat();\n        } else if (numberOfSeats == 1 && _skippedSeats.length > 0) {\n            bookSkippedSeat();\n        }\n    }\n\n    function bookGarbage() public view returns(bytes32) {\n        //_seats[1].owner = 0x7f90656Cde73A907f66cbfE44cBB88B57B00cE23;\n        return _seats[3].uuid;\n    }\n\n    function loadSeat(bytes32 uuid) public returns(uint) {\n        _seats.push(Seat(uuid, address(0), address(0), 0));\n        _seatIndexFromUuid[uuid] = _seats.length-1;\n        return _seats.length-1;\n    }\n\n    function getSeatByIndex(uint index)\n        public\n        view\n        returns(uint, bytes32, address, address, uint)\n    {\n        Seat storage searchSeat = _seats[index];\n        return (index, searchSeat.uuid, searchSeat.owner, searchSeat.passenger, searchSeat.price);\n    }\n\n    function getSeatByUuid(bytes32 uuid)\n        public\n        view\n        returns(uint, bytes32, address, address, uint)\n    {\n        Seat storage searchSeat = _seats[_seatIndexFromUuid[uuid]];\n        return (_seatIndexFromUuid[uuid], uuid, searchSeat.owner, searchSeat.passenger, searchSeat.price);\n    }\n\n    function getPassengerSeat() public view returns(uint, bytes32, address, address, uint) {\n        Seat storage searchSeat = _seats[_passengerSeat[msg.sender]];\n        return (_passengerSeat[msg.sender], searchSeat.uuid, searchSeat.owner, searchSeat.passenger, searchSeat.price);\n    }\n\n    function bookOneSeat() private {\n        _ownerSeats[msg.sender].push(_seatPurchaseIndex);    // 20,000\n        _passengerSeat[msg.sender] = _seatPurchaseIndex;     // 20,000\n\n        // _seats[_seatPurchaseIndex].owner = msg.sender;    // 20,000\n        // _seats[_seatPurchaseIndex].passenger = msg.sender;// 20,000\n        // _seats[_seatPurchaseIndex].price = _seatPrice;    // 20,000\n\n        emit SeatBooked(_flightId, _seats[_seatPurchaseIndex].owner, _seats[_seatPurchaseIndex].uuid);\n\n        _seatPurchaseIndex++; // 3 + 20,000\n        _seatsRemaining--; // 3 + 20,000\n        // gas limit = 3000000\n    }\n\n    function bookSkippedSeat() private {\n\n        uint skippedSeatIndex = _skippedSeats[_skippedSeats.length-1];\n        delete _skippedSeats[_skippedSeats.length-1];\n        _skippedSeats.length--;\n\n        _seatsRemaining--;\n\n        _ownerSeats[msg.sender].push(skippedSeatIndex);\n        _passengerSeat[msg.sender] = skippedSeatIndex;\n\n        _seats[skippedSeatIndex].owner = msg.sender;\n        _seats[skippedSeatIndex].passenger = msg.sender;\n        _seats[skippedSeatIndex].price = _seatPrice;\n\n        emit SeatBooked(_flightId, _seats[skippedSeatIndex].owner, _seats[skippedSeatIndex].uuid);\n    }\n\n    function cancelSeat(uint seatIndex) public {\n        require(_seats[seatIndex].owner == msg.sender, \"This seat does not belong to this user\");\n\n        if (_seats[seatIndex].passenger == msg.sender) {\n            delete _passengerSeat[msg.sender];\n        }\n\n        for (uint i = 0; i < _ownerSeats[msg.sender].length-1; i++) {\n            if (seatIndex == _ownerSeats[msg.sender][i]) {\n                delete _ownerSeats[msg.sender][i];\n                _ownerSeats[msg.sender][i] = _ownerSeats[msg.sender][_ownerSeats[msg.sender].length-1];\n            }\n        }\n\n        _ownerSeats[msg.sender].length--;\n        _skippedSeats.push(seatIndex);\n\n        msg.sender.transfer(_seats[seatIndex].price);\n\n        _seats[seatIndex].owner = address(0);\n        _seats[seatIndex].passenger = address(0);\n        _seats[seatIndex].price = 0;\n\n        _seatsRemaining++;\n\n        emit SeatCancelled(_flightId, _seats[seatIndex].uuid);\n    }\n\n    function bookMultipleSeats(uint numberOfSeats) private {\n        for (uint i; i < numberOfSeats; i++) {\n            bookOneSeat();\n        }\n    }\n\n    function getSkippedSeatCount() public view returns(uint) {\n        return _skippedSeats.length;\n    }\n\n    function requestRefund() public hasTicket onlyCancelled {\n        uint totalRefund = 0;\n        for(uint i; i < _ownerSeats[msg.sender].length; i++){\n            totalRefund += _ownerSeats[msg.sender][i];\n            delete _ownerSeats[msg.sender][i];\n        }\n        _ownerSeats[msg.sender].length = 0;\n\n        emit RefundSent(_flightId, msg.sender, totalRefund);\n        msg.sender.transfer(totalRefund);\n    }\n\n    function concludeFlight() public {\n        require(msg.sender == _owner, \"Only the owner may perform this action\");\n        emit FlightConcluded(_flightId, _owner, address(this).balance);\n        selfdestruct(_owner);\n    }\n\n    /**\n     * Modifiers\n     */\n\n    modifier onlyRegulator(){\n        require(msg.sender == _regulator, \"Sender must be a regulator\");\n        _;\n    }\n\n    modifier onlyPresale(){\n        require(_status == FlightStatus.Presale, \"Flight must be in Presale status\");\n        _;\n    }\n\n    modifier onlySale(){\n        require(_status == FlightStatus.Sale, \"Flight must be in Sale status\");\n        _;\n    }\n\n    modifier onlyClosed(){\n        require(_status == FlightStatus.Closed, \"Flight must be in Closed status\");\n        _;\n    }\n\n    modifier onlyLanded(){\n        require(_status == FlightStatus.Landed, \"Flight must be in Landed status\");\n        _;\n    }\n\n    modifier onlyFinalised(){\n        require(_status == FlightStatus.Finalised, \"Flight must be in Finalised status\");\n        _;\n    }\n\n    modifier onlyCancelled(){\n        require(_status == FlightStatus.Cancelled, \"Flight must be in Cancelled status\");\n        _;\n    }\n\n    modifier hasTicket(){\n        require(_ownerSeats[msg.sender].length > 0, \"Sender must have seats on this flight\");\n        _;\n    }\n}",
  "sourcePath": "/Users/mattb/Code/fairline-contract/contracts/Flight.sol",
  "compiler": {
    "name": "solc",
    "version": "0.4.25+commit.59dbf8f1.Emscripten.clang"
  },
  "schemaVersion": "3.0.0",
  "updatedAt": "2018-12-21T12:14:01.361Z",
  "devdoc": {
    "methods": {}
  },
  "userdoc": {
    "methods": {
      "book(uint256)": {
        "notice": "Passenger Actions"
      }
    }
  }
}